{
  "_format": "hh-sol-artifact-1",
  "contractName": "MetaDaoNft",
  "sourceName": "contracts/MetaDaoNft.sol",
  "abi": [
    {
      "inputs": [
        {
          "internalType": "string",
          "name": "baseTokenURI",
          "type": "string"
        },
        {
          "internalType": "uint256",
          "name": "initialMaxMints",
          "type": "uint256"
        }
      ],
      "stateMutability": "nonpayable",
      "type": "constructor"
    },
    {
      "anonymous": false,
      "inputs": [
        {
          "indexed": true,
          "internalType": "address",
          "name": "owner",
          "type": "address"
        },
        {
          "indexed": true,
          "internalType": "address",
          "name": "approved",
          "type": "address"
        },
        {
          "indexed": true,
          "internalType": "uint256",
          "name": "tokenId",
          "type": "uint256"
        }
      ],
      "name": "Approval",
      "type": "event"
    },
    {
      "anonymous": false,
      "inputs": [
        {
          "indexed": true,
          "internalType": "address",
          "name": "owner",
          "type": "address"
        },
        {
          "indexed": true,
          "internalType": "address",
          "name": "operator",
          "type": "address"
        },
        {
          "indexed": false,
          "internalType": "bool",
          "name": "approved",
          "type": "bool"
        }
      ],
      "name": "ApprovalForAll",
      "type": "event"
    },
    {
      "anonymous": false,
      "inputs": [
        {
          "indexed": true,
          "internalType": "address",
          "name": "previousOwner",
          "type": "address"
        },
        {
          "indexed": true,
          "internalType": "address",
          "name": "newOwner",
          "type": "address"
        }
      ],
      "name": "OwnershipTransferred",
      "type": "event"
    },
    {
      "anonymous": false,
      "inputs": [
        {
          "indexed": false,
          "internalType": "address",
          "name": "account",
          "type": "address"
        }
      ],
      "name": "Paused",
      "type": "event"
    },
    {
      "anonymous": false,
      "inputs": [
        {
          "indexed": true,
          "internalType": "bytes32",
          "name": "role",
          "type": "bytes32"
        },
        {
          "indexed": true,
          "internalType": "bytes32",
          "name": "previousAdminRole",
          "type": "bytes32"
        },
        {
          "indexed": true,
          "internalType": "bytes32",
          "name": "newAdminRole",
          "type": "bytes32"
        }
      ],
      "name": "RoleAdminChanged",
      "type": "event"
    },
    {
      "anonymous": false,
      "inputs": [
        {
          "indexed": true,
          "internalType": "bytes32",
          "name": "role",
          "type": "bytes32"
        },
        {
          "indexed": true,
          "internalType": "address",
          "name": "account",
          "type": "address"
        },
        {
          "indexed": true,
          "internalType": "address",
          "name": "sender",
          "type": "address"
        }
      ],
      "name": "RoleGranted",
      "type": "event"
    },
    {
      "anonymous": false,
      "inputs": [
        {
          "indexed": true,
          "internalType": "bytes32",
          "name": "role",
          "type": "bytes32"
        },
        {
          "indexed": true,
          "internalType": "address",
          "name": "account",
          "type": "address"
        },
        {
          "indexed": true,
          "internalType": "address",
          "name": "sender",
          "type": "address"
        }
      ],
      "name": "RoleRevoked",
      "type": "event"
    },
    {
      "anonymous": false,
      "inputs": [
        {
          "indexed": false,
          "internalType": "uint256",
          "name": "tokenId",
          "type": "uint256"
        },
        {
          "indexed": false,
          "internalType": "address",
          "name": "recipient",
          "type": "address"
        }
      ],
      "name": "SuccessfulMint",
      "type": "event"
    },
    {
      "anonymous": false,
      "inputs": [
        {
          "indexed": true,
          "internalType": "address",
          "name": "from",
          "type": "address"
        },
        {
          "indexed": true,
          "internalType": "address",
          "name": "to",
          "type": "address"
        },
        {
          "indexed": true,
          "internalType": "uint256",
          "name": "tokenId",
          "type": "uint256"
        }
      ],
      "name": "Transfer",
      "type": "event"
    },
    {
      "anonymous": false,
      "inputs": [
        {
          "indexed": false,
          "internalType": "address",
          "name": "account",
          "type": "address"
        }
      ],
      "name": "Unpaused",
      "type": "event"
    },
    {
      "inputs": [],
      "name": "DEFAULT_ADMIN_ROLE",
      "outputs": [
        {
          "internalType": "bytes32",
          "name": "",
          "type": "bytes32"
        }
      ],
      "stateMutability": "view",
      "type": "function"
    },
    {
      "inputs": [],
      "name": "MAX_MINT_HARDCAP",
      "outputs": [
        {
          "internalType": "uint256",
          "name": "",
          "type": "uint256"
        }
      ],
      "stateMutability": "view",
      "type": "function"
    },
    {
      "inputs": [],
      "name": "PRICE",
      "outputs": [
        {
          "internalType": "uint256",
          "name": "",
          "type": "uint256"
        }
      ],
      "stateMutability": "view",
      "type": "function"
    },
    {
      "inputs": [],
      "name": "allowPublicMinting",
      "outputs": [],
      "stateMutability": "nonpayable",
      "type": "function"
    },
    {
      "inputs": [
        {
          "internalType": "address",
          "name": "to",
          "type": "address"
        },
        {
          "internalType": "uint256",
          "name": "tokenId",
          "type": "uint256"
        }
      ],
      "name": "approve",
      "outputs": [],
      "stateMutability": "nonpayable",
      "type": "function"
    },
    {
      "inputs": [
        {
          "internalType": "address",
          "name": "owner",
          "type": "address"
        }
      ],
      "name": "balanceOf",
      "outputs": [
        {
          "internalType": "uint256",
          "name": "",
          "type": "uint256"
        }
      ],
      "stateMutability": "view",
      "type": "function"
    },
    {
      "inputs": [],
      "name": "disallowPublicMinting",
      "outputs": [],
      "stateMutability": "nonpayable",
      "type": "function"
    },
    {
      "inputs": [
        {
          "internalType": "uint256",
          "name": "tokenId",
          "type": "uint256"
        }
      ],
      "name": "getApproved",
      "outputs": [
        {
          "internalType": "address",
          "name": "",
          "type": "address"
        }
      ],
      "stateMutability": "view",
      "type": "function"
    },
    {
      "inputs": [
        {
          "internalType": "bytes32",
          "name": "role",
          "type": "bytes32"
        }
      ],
      "name": "getRoleAdmin",
      "outputs": [
        {
          "internalType": "bytes32",
          "name": "",
          "type": "bytes32"
        }
      ],
      "stateMutability": "view",
      "type": "function"
    },
    {
      "inputs": [
        {
          "internalType": "bytes32",
          "name": "role",
          "type": "bytes32"
        },
        {
          "internalType": "uint256",
          "name": "index",
          "type": "uint256"
        }
      ],
      "name": "getRoleMember",
      "outputs": [
        {
          "internalType": "address",
          "name": "",
          "type": "address"
        }
      ],
      "stateMutability": "view",
      "type": "function"
    },
    {
      "inputs": [
        {
          "internalType": "bytes32",
          "name": "role",
          "type": "bytes32"
        }
      ],
      "name": "getRoleMemberCount",
      "outputs": [
        {
          "internalType": "uint256",
          "name": "",
          "type": "uint256"
        }
      ],
      "stateMutability": "view",
      "type": "function"
    },
    {
      "inputs": [
        {
          "internalType": "bytes32",
          "name": "role",
          "type": "bytes32"
        },
        {
          "internalType": "address",
          "name": "account",
          "type": "address"
        }
      ],
      "name": "grantRole",
      "outputs": [],
      "stateMutability": "nonpayable",
      "type": "function"
    },
    {
      "inputs": [
        {
          "internalType": "bytes32",
          "name": "role",
          "type": "bytes32"
        },
        {
          "internalType": "address",
          "name": "account",
          "type": "address"
        }
      ],
      "name": "hasRole",
      "outputs": [
        {
          "internalType": "bool",
          "name": "",
          "type": "bool"
        }
      ],
      "stateMutability": "view",
      "type": "function"
    },
    {
      "inputs": [
        {
          "internalType": "address",
          "name": "owner",
          "type": "address"
        },
        {
          "internalType": "address",
          "name": "operator",
          "type": "address"
        }
      ],
      "name": "isApprovedForAll",
      "outputs": [
        {
          "internalType": "bool",
          "name": "",
          "type": "bool"
        }
      ],
      "stateMutability": "view",
      "type": "function"
    },
    {
      "inputs": [],
      "name": "isPublicMintingAllowed",
      "outputs": [
        {
          "internalType": "bool",
          "name": "",
          "type": "bool"
        }
      ],
      "stateMutability": "view",
      "type": "function"
    },
    {
      "inputs": [],
      "name": "maxMints",
      "outputs": [
        {
          "internalType": "uint256",
          "name": "",
          "type": "uint256"
        }
      ],
      "stateMutability": "view",
      "type": "function"
    },
    {
      "inputs": [
        {
          "internalType": "address",
          "name": "recipient",
          "type": "address"
        },
        {
          "internalType": "uint8",
          "name": "count",
          "type": "uint8"
        },
        {
          "internalType": "bytes32[]",
          "name": "_proof",
          "type": "bytes32[]"
        },
        {
          "internalType": "uint256[]",
          "name": "_positions",
          "type": "uint256[]"
        }
      ],
      "name": "mint",
      "outputs": [],
      "stateMutability": "payable",
      "type": "function"
    },
    {
      "inputs": [],
      "name": "name",
      "outputs": [
        {
          "internalType": "string",
          "name": "",
          "type": "string"
        }
      ],
      "stateMutability": "view",
      "type": "function"
    },
    {
      "inputs": [],
      "name": "owner",
      "outputs": [
        {
          "internalType": "address",
          "name": "",
          "type": "address"
        }
      ],
      "stateMutability": "view",
      "type": "function"
    },
    {
      "inputs": [
        {
          "internalType": "uint256",
          "name": "tokenId",
          "type": "uint256"
        }
      ],
      "name": "ownerOf",
      "outputs": [
        {
          "internalType": "address",
          "name": "",
          "type": "address"
        }
      ],
      "stateMutability": "view",
      "type": "function"
    },
    {
      "inputs": [],
      "name": "pause",
      "outputs": [],
      "stateMutability": "nonpayable",
      "type": "function"
    },
    {
      "inputs": [],
      "name": "paused",
      "outputs": [
        {
          "internalType": "bool",
          "name": "",
          "type": "bool"
        }
      ],
      "stateMutability": "view",
      "type": "function"
    },
    {
      "inputs": [],
      "name": "renounceOwnership",
      "outputs": [],
      "stateMutability": "nonpayable",
      "type": "function"
    },
    {
      "inputs": [
        {
          "internalType": "bytes32",
          "name": "role",
          "type": "bytes32"
        },
        {
          "internalType": "address",
          "name": "account",
          "type": "address"
        }
      ],
      "name": "renounceRole",
      "outputs": [],
      "stateMutability": "nonpayable",
      "type": "function"
    },
    {
      "inputs": [
        {
          "internalType": "bytes32",
          "name": "role",
          "type": "bytes32"
        },
        {
          "internalType": "address",
          "name": "account",
          "type": "address"
        }
      ],
      "name": "revokeRole",
      "outputs": [],
      "stateMutability": "nonpayable",
      "type": "function"
    },
    {
      "inputs": [
        {
          "internalType": "address",
          "name": "from",
          "type": "address"
        },
        {
          "internalType": "address",
          "name": "to",
          "type": "address"
        },
        {
          "internalType": "uint256",
          "name": "tokenId",
          "type": "uint256"
        }
      ],
      "name": "safeTransferFrom",
      "outputs": [],
      "stateMutability": "nonpayable",
      "type": "function"
    },
    {
      "inputs": [
        {
          "internalType": "address",
          "name": "from",
          "type": "address"
        },
        {
          "internalType": "address",
          "name": "to",
          "type": "address"
        },
        {
          "internalType": "uint256",
          "name": "tokenId",
          "type": "uint256"
        },
        {
          "internalType": "bytes",
          "name": "_data",
          "type": "bytes"
        }
      ],
      "name": "safeTransferFrom",
      "outputs": [],
      "stateMutability": "nonpayable",
      "type": "function"
    },
    {
      "inputs": [
        {
          "internalType": "address",
          "name": "operator",
          "type": "address"
        },
        {
          "internalType": "bool",
          "name": "approved",
          "type": "bool"
        }
      ],
      "name": "setApprovalForAll",
      "outputs": [],
      "stateMutability": "nonpayable",
      "type": "function"
    },
    {
      "inputs": [
        {
          "internalType": "uint256",
          "name": "newMaxMints",
          "type": "uint256"
        }
      ],
      "name": "setMaxMints",
      "outputs": [],
      "stateMutability": "nonpayable",
      "type": "function"
    },
    {
      "inputs": [
        {
          "internalType": "bytes4",
          "name": "interfaceId",
          "type": "bytes4"
        }
      ],
      "name": "supportsInterface",
      "outputs": [
        {
          "internalType": "bool",
          "name": "",
          "type": "bool"
        }
      ],
      "stateMutability": "view",
      "type": "function"
    },
    {
      "inputs": [],
      "name": "symbol",
      "outputs": [
        {
          "internalType": "string",
          "name": "",
          "type": "string"
        }
      ],
      "stateMutability": "view",
      "type": "function"
    },
    {
      "inputs": [
        {
          "internalType": "uint256",
          "name": "index",
          "type": "uint256"
        }
      ],
      "name": "tokenByIndex",
      "outputs": [
        {
          "internalType": "uint256",
          "name": "",
          "type": "uint256"
        }
      ],
      "stateMutability": "view",
      "type": "function"
    },
    {
      "inputs": [
        {
          "internalType": "address",
          "name": "owner",
          "type": "address"
        },
        {
          "internalType": "uint256",
          "name": "index",
          "type": "uint256"
        }
      ],
      "name": "tokenOfOwnerByIndex",
      "outputs": [
        {
          "internalType": "uint256",
          "name": "",
          "type": "uint256"
        }
      ],
      "stateMutability": "view",
      "type": "function"
    },
    {
      "inputs": [
        {
          "internalType": "uint256",
          "name": "tokenId",
          "type": "uint256"
        }
      ],
      "name": "tokenURI",
      "outputs": [
        {
          "internalType": "string",
          "name": "",
          "type": "string"
        }
      ],
      "stateMutability": "view",
      "type": "function"
    },
    {
      "inputs": [],
      "name": "totalSupply",
      "outputs": [
        {
          "internalType": "uint256",
          "name": "",
          "type": "uint256"
        }
      ],
      "stateMutability": "view",
      "type": "function"
    },
    {
      "inputs": [
        {
          "internalType": "address",
          "name": "from",
          "type": "address"
        },
        {
          "internalType": "address",
          "name": "to",
          "type": "address"
        },
        {
          "internalType": "uint256",
          "name": "tokenId",
          "type": "uint256"
        }
      ],
      "name": "transferFrom",
      "outputs": [],
      "stateMutability": "nonpayable",
      "type": "function"
    },
    {
      "inputs": [
        {
          "internalType": "address",
          "name": "newOwner",
          "type": "address"
        }
      ],
      "name": "transferOwnership",
      "outputs": [],
      "stateMutability": "nonpayable",
      "type": "function"
    },
    {
      "inputs": [],
      "name": "unpause",
      "outputs": [],
      "stateMutability": "nonpayable",
      "type": "function"
    },
    {
      "inputs": [
        {
          "internalType": "bytes32",
          "name": "whitelistMerkleRoot",
          "type": "bytes32"
        }
      ],
      "name": "updateWhitelist",
      "outputs": [],
      "stateMutability": "nonpayable",
      "type": "function"
    },
    {
      "inputs": [
        {
          "internalType": "address",
          "name": "recipient",
          "type": "address"
        },
        {
          "internalType": "bytes32[]",
          "name": "_proof",
          "type": "bytes32[]"
        },
        {
          "internalType": "uint256[]",
          "name": "_positions",
          "type": "uint256[]"
        }
      ],
      "name": "verifyWhitelist",
      "outputs": [
        {
          "internalType": "bool",
          "name": "",
          "type": "bool"
        }
      ],
      "stateMutability": "view",
      "type": "function"
    },
    {
      "inputs": [],
      "name": "withdrawAll",
      "outputs": [],
      "stateMutability": "nonpayable",
      "type": "function"
    }
  ],
  "bytecode": "0x60806040523480156200001157600080fd5b506040516200389c3803806200389c8339810160408190526200003491620004f3565b6040518060400160405280600c81526020016b13595d1848111053c813919560a21b8152506040518060400160405280600a81526020016913515510511053d3919560b21b81525062000096620000906200011860201b60201c565b6200011c565b8151620000ab90600390602085019062000437565b508051620000c190600490602084019062000437565b5050600d805460ff19169055508151620000e390601190602085019062000437565b50600f805460ff19169055620000fb6000336200016c565b6200010681620001af565b6200011062000249565b505062000640565b3390565b600080546001600160a01b038381166001600160a01b0319831681178455604051919092169283917f8be0079c531659141344cd1fd0a4f28419497f9722a3daafe3b4186f6b6457e09190a35050565b6200018382826200028160201b620013831760201c565b6000828152600260209081526040909120620001aa9183906200139162000291821b17901c565b505050565b620001bc600033620002b1565b620001e45760405162461bcd60e51b8152600401620001db90620005d8565b60405180910390fd5b612710811115620002445760405162461bcd60e51b815260206004820152602360248201527f43616e6e6f7420736574206d617820746f206265206d6f7265207468616e203160448201526218359760e91b6064820152608401620001db565b600e55565b62000256600033620002b1565b620002755760405162461bcd60e51b8152600401620001db90620005d8565b6200027f620002dc565b565b6200028d828262000377565b5050565b6000620002a8836001600160a01b038416620003e5565b90505b92915050565b60009182526001602090815260408084206001600160a01b0393909316845291905290205460ff1690565b600d5460ff1615620003245760405162461bcd60e51b815260206004820152601060248201526f14185d5cd8589b194e881c185d5cd95960821b6044820152606401620001db565b600d805460ff191660011790557f62e78cea01bee320cd4e420270b5ea74000d11b0c9f74754ebdbfc544b05a2586200035a3390565b6040516001600160a01b03909116815260200160405180910390a1565b620003838282620002b1565b6200028d5760008281526001602081815260408084206001600160a01b0386168086529252808420805460ff19169093179092559051339285917f2f8788117e7eff1d82e926ec794901d17c78024a50270940304540a733656f0d9190a45050565b60008181526001830160205260408120546200042e57508154600181810184556000848152602080822090930184905584548482528286019093526040902091909155620002ab565b506000620002ab565b828054620004459062000603565b90600052602060002090601f016020900481019282620004695760008555620004b4565b82601f106200048457805160ff1916838001178555620004b4565b82800160010185558215620004b4579182015b82811115620004b457825182559160200191906001019062000497565b50620004c2929150620004c6565b5090565b5b80821115620004c25760008155600101620004c7565b634e487b7160e01b600052604160045260246000fd5b600080604083850312156200050757600080fd5b82516001600160401b03808211156200051f57600080fd5b818501915085601f8301126200053457600080fd5b815181811115620005495762000549620004dd565b604051601f8201601f19908116603f01168101908382118183101715620005745762000574620004dd565b816040528281526020935088848487010111156200059157600080fd5b600091505b82821015620005b5578482018401518183018501529083019062000596565b82821115620005c75760008484830101525b969092015195979596505050505050565b60208082526011908201527026bab9ba1031329030b71030b236b4b71760791b604082015260600190565b600181811c908216806200061857607f821691505b602082108114156200063a57634e487b7160e01b600052602260045260246000fd5b50919050565b61324c80620006506000396000f3fe6080604052600436106101d65760003560e01c806301ffc9a7146101db57806306fdde0314610210578063081812fc146102325780630873ae051461025f578063095ea7b31461028357806318160ddd146102a55780632152cb02146102ba57806323b872dd146102da578063248a9ca3146102fa578063289310871461031a5780632f2ff15d1461032f5780632f745c591461034f57806336568abe1461036f5780633f4ba83a1461038f57806342842e0e146103a4578063430f8949146103c45780634f6ccce7146103de5780635c975abb146103fe5780636352211e1461041657806370a0823114610436578063715018a61461045657806379c9cb7b1461046b5780638456cb591461048b578063853828b6146104a05780638d859f3e146104b55780638da5cb5b146104d15780639010d07c146104e6578063916f3fd31461050657806391d148541461051957806395d89b4114610539578063a217fddf1461054e578063a22cb46514610563578063b6b6f0c314610583578063b88d4fde14610599578063c5762ef7146105b9578063c87b56dd146105ce578063ca15c873146105ee578063d4c04ef21461060e578063d547741f1461062e578063e985e9c51461064e578063f2fde38b1461066e575b600080fd5b3480156101e757600080fd5b506101fb6101f6366004612845565b61068e565b60405190151581526020015b60405180910390f35b34801561021c57600080fd5b5061022561069f565b60405161020791906128ba565b34801561023e57600080fd5b5061025261024d3660046128cd565b610731565b60405161020791906128e6565b34801561026b57600080fd5b5061027561271081565b604051908152602001610207565b34801561028f57600080fd5b506102a361029e366004612911565b6107be565b005b3480156102b157600080fd5b50600b54610275565b3480156102c657600080fd5b506102a36102d53660046128cd565b6108cf565b3480156102e657600080fd5b506102a36102f536600461293b565b6108fb565b34801561030657600080fd5b506102756103153660046128cd565b61092c565b34801561032657600080fd5b506102a3610942565b34801561033b57600080fd5b506102a361034a366004612977565b610975565b34801561035b57600080fd5b5061027561036a366004612911565b610997565b34801561037b57600080fd5b506102a361038a366004612977565b610a2d565b34801561039b57600080fd5b506102a3610a4f565b3480156103b057600080fd5b506102a36103bf36600461293b565b610a80565b3480156103d057600080fd5b50600f546101fb9060ff1681565b3480156103ea57600080fd5b506102756103f93660046128cd565b610a9b565b34801561040a57600080fd5b50600d5460ff166101fb565b34801561042257600080fd5b506102526104313660046128cd565b610b2e565b34801561044257600080fd5b506102756104513660046129a3565b610ba5565b34801561046257600080fd5b506102a3610c2c565b34801561047757600080fd5b506102a36104863660046128cd565b610c65565b34801561049757600080fd5b506102a3610cef565b3480156104ac57600080fd5b506102a3610d1e565b3480156104c157600080fd5b506102756702c68af0bb14000081565b3480156104dd57600080fd5b50610252610de0565b3480156104f257600080fd5b506102526105013660046129be565b610def565b6102a3610514366004612ab4565b610e0e565b34801561052557600080fd5b506101fb610534366004612977565b61104a565b34801561054557600080fd5b50610225611075565b34801561055a57600080fd5b50610275600081565b34801561056f57600080fd5b506102a361057e366004612b40565b611084565b34801561058f57600080fd5b50610275600e5481565b3480156105a557600080fd5b506102a36105b4366004612b7c565b611145565b3480156105c557600080fd5b506102a3611177565b3480156105da57600080fd5b506102256105e93660046128cd565b6111ad565b3480156105fa57600080fd5b506102756106093660046128cd565b61122a565b34801561061a57600080fd5b506101fb610629366004612c3b565b611241565b34801561063a57600080fd5b506102a3610649366004612977565b6112ab565b34801561065a57600080fd5b506101fb610669366004612cae565b6112b5565b34801561067a57600080fd5b506102a36106893660046129a3565b6112e3565b6000610699826113a6565b92915050565b6060600380546106ae90612cd8565b80601f01602080910402602001604051908101604052809291908181526020018280546106da90612cd8565b80156107275780601f106106fc57610100808354040283529160200191610727565b820191906000526020600020905b81548152906001019060200180831161070a57829003601f168201915b5050505050905090565b600061073c826113cb565b6107a25760405162461bcd60e51b815260206004820152602c60248201527f4552433732313a20617070726f76656420717565727920666f72206e6f6e657860448201526b34b9ba32b73a103a37b5b2b760a11b60648201526084015b60405180910390fd5b506000908152600760205260409020546001600160a01b031690565b60006107c982610b2e565b9050806001600160a01b0316836001600160a01b031614156108375760405162461bcd60e51b815260206004820152602160248201527f4552433732313a20617070726f76616c20746f2063757272656e74206f776e656044820152603960f91b6064820152608401610799565b336001600160a01b0382161480610853575061085381336112b5565b6108c05760405162461bcd60e51b815260206004820152603860248201527f4552433732313a20617070726f76652063616c6c6572206973206e6f74206f776044820152771b995c881b9bdc88185c1c1c9bdd995908199bdc88185b1b60421b6064820152608401610799565b6108ca83836113e8565b505050565b6108da60003361104a565b6108f65760405162461bcd60e51b815260040161079990612d13565b601055565b6109053382611456565b6109215760405162461bcd60e51b815260040161079990612d3e565b6108ca838383611520565b6000908152600160208190526040909120015490565b61094d60003361104a565b6109695760405162461bcd60e51b815260040161079990612d13565b600f805460ff19169055565b61097f82826116b9565b60008281526002602052604090206108ca9082611391565b60006109a283610ba5565b8210610a045760405162461bcd60e51b815260206004820152602b60248201527f455243373231456e756d657261626c653a206f776e657220696e646578206f7560448201526a74206f6620626f756e647360a81b6064820152608401610799565b506001600160a01b03919091166000908152600960209081526040808320938352929052205490565b610a3782826116d6565b60008281526002602052604090206108ca9082611750565b610a5a60003361104a565b610a765760405162461bcd60e51b815260040161079990612d13565b610a7e611765565b565b6108ca83838360405180602001604052806000815250611145565b6000610aa6600b5490565b8210610b095760405162461bcd60e51b815260206004820152602c60248201527f455243373231456e756d657261626c653a20676c6f62616c20696e646578206f60448201526b7574206f6620626f756e647360a01b6064820152608401610799565b600b8281548110610b1c57610b1c612d8f565b90600052602060002001549050919050565b6000818152600560205260408120546001600160a01b0316806106995760405162461bcd60e51b815260206004820152602960248201527f4552433732313a206f776e657220717565727920666f72206e6f6e657869737460448201526832b73a103a37b5b2b760b91b6064820152608401610799565b60006001600160a01b038216610c105760405162461bcd60e51b815260206004820152602a60248201527f4552433732313a2062616c616e636520717565727920666f7220746865207a65604482015269726f206164647265737360b01b6064820152608401610799565b506001600160a01b031660009081526006602052604090205490565b33610c35610de0565b6001600160a01b031614610c5b5760405162461bcd60e51b815260040161079990612da5565b610a7e60006117f2565b610c7060003361104a565b610c8c5760405162461bcd60e51b815260040161079990612d13565b612710811115610cea5760405162461bcd60e51b815260206004820152602360248201527f43616e6e6f7420736574206d617820746f206265206d6f7265207468616e203160448201526218359760e91b6064820152608401610799565b600e55565b610cfa60003361104a565b610d165760405162461bcd60e51b815260040161079990612d13565b610a7e611842565b610d2960003361104a565b610d455760405162461bcd60e51b815260040161079990612d13565b476000610d518161122a565b905060008211610d9a5760405162461bcd60e51b81526020600482015260146024820152732737ba3434b733903a37903bb4ba34323930bb9760611b6044820152606401610799565b8160005b82811015610dda576000610db28183610def565b9050610dc781610dc28686612e06565b6118bd565b5080610dd281612e1a565b915050610d9e565b50505050565b6000546001600160a01b031690565b6000828152600260205260408120610e079083611953565b9392505050565b600f5460ff1680610e255750610e25848383611241565b610e655760405162461bcd60e51b81526020600482015260116024820152702737ba1037b7103bb434ba32b634b9ba1760791b6044820152606401610799565b600d5460ff1615610e885760405162461bcd60e51b815260040161079990612e35565b600e54600b5410610ec65760405162461bcd60e51b8152602060048201526008602482015267536f6c646f75742160c01b6044820152606401610799565b60008360ff1611610f175760405162461bcd60e51b815260206004820152601b60248201527a2cb7ba9036bab9ba1036b4b73a1030ba103632b0b9ba1037b7329760291b6044820152606401610799565b60028360ff161115610f775760405162461bcd60e51b815260206004820152602360248201527f596f752063616e2774206d696e74206d6f7265207468616e2032206174206f6e60448201526231b29760e91b6064820152608401610799565b610f8c60ff84166702c68af0bb140000612e5e565b341015610fcf5760405162461bcd60e51b815260206004820152601160248201527056616c75652062656c6f7720707269636560781b6044820152606401610799565b600e548360ff16610fdf600b5490565b610fe99190612e7d565b11158015610ffb5750612710600e5414155b6110175760405162461bcd60e51b815260040161079990612e35565b60005b8360ff168160ff161015611043576110318561195f565b8061103b81612e95565b91505061101a565b5050505050565b60009182526001602090815260408084206001600160a01b0393909316845291905290205460ff1690565b6060600480546106ae90612cd8565b6001600160a01b0382163314156110d95760405162461bcd60e51b815260206004820152601960248201527822a9219b99189d1030b8383937bb32903a379031b0b63632b960391b6044820152606401610799565b3360008181526008602090815260408083206001600160a01b03871680855290835292819020805460ff191686151590811790915590519081529192917f17307eab39ab6107e8899845ad3d59bd9653f200f220920489ca2b5937696c31910160405180910390a35050565b61114f3383611456565b61116b5760405162461bcd60e51b815260040161079990612d3e565b610dda848484846119c6565b61118260003361104a565b61119e5760405162461bcd60e51b815260040161079990612d13565b600f805460ff19166001179055565b60606111bb600d5460ff1690565b1561121c5760006111f26111ce846119f9565b6040516020016111de9190612eb5565b604051602081830303815290604052611af6565b9050806040516020016112059190612fcf565b604051602081830303815290604052915050919050565b61069982611c5b565b919050565b600081815260026020526040812061069990611d0f565b600082516000148061125257508151155b1561125f57506000610e07565b6040516001600160601b0319606086901b1660208201526000906034016040516020818303038152906040528051906020012090506112a2601054828686611d19565b95945050505050565b610a378282611de4565b6001600160a01b03918216600090815260086020908152604080832093909416825291909152205460ff1690565b336112ec610de0565b6001600160a01b0316146113125760405162461bcd60e51b815260040161079990612da5565b6001600160a01b0381166113775760405162461bcd60e51b815260206004820152602660248201527f4f776e61626c653a206e6577206f776e657220697320746865207a65726f206160448201526564647265737360d01b6064820152608401610799565b611380816117f2565b50565b61138d8282611e01565b5050565b6000610e07836001600160a01b038416611e6c565b60006001600160e01b0319821663780e9d6360e01b1480610699575061069982611ebb565b6000908152600560205260409020546001600160a01b0316151590565b600081815260076020526040902080546001600160a01b0319166001600160a01b038416908117909155819061141d82610b2e565b6001600160a01b03167f8c5be1e5ebec7d5bd14f71427d1e84f3dd0314c0f7b2291e5b200ac8c7c3b92560405160405180910390a45050565b6000611461826113cb565b6114c25760405162461bcd60e51b815260206004820152602c60248201527f4552433732313a206f70657261746f7220717565727920666f72206e6f6e657860448201526b34b9ba32b73a103a37b5b2b760a11b6064820152608401610799565b60006114cd83610b2e565b9050806001600160a01b0316846001600160a01b031614806115085750836001600160a01b03166114fd84610731565b6001600160a01b0316145b80611518575061151881856112b5565b949350505050565b826001600160a01b031661153382610b2e565b6001600160a01b03161461159b5760405162461bcd60e51b815260206004820152602960248201527f4552433732313a207472616e73666572206f6620746f6b656e2074686174206960448201526839903737ba1037bbb760b91b6064820152608401610799565b6001600160a01b0382166115fd5760405162461bcd60e51b8152602060048201526024808201527f4552433732313a207472616e7366657220746f20746865207a65726f206164646044820152637265737360e01b6064820152608401610799565b611608838383611efb565b6116136000826113e8565b6001600160a01b038316600090815260066020526040812080546001929061163c908490613014565b90915550506001600160a01b038216600090815260066020526040812080546001929061166a908490612e7d565b909155505060008181526005602052604080822080546001600160a01b0319166001600160a01b0386811691821790925591518493918716916000805160206131f783398151915291a4505050565b6116c28261092c565b6116cc8133611f06565b6108ca8383611e01565b6001600160a01b03811633146117465760405162461bcd60e51b815260206004820152602f60248201527f416363657373436f6e74726f6c3a2063616e206f6e6c792072656e6f756e636560448201526e103937b632b9903337b91039b2b63360891b6064820152608401610799565b61138d8282611f6a565b6000610e07836001600160a01b038416611fd1565b600d5460ff166117ae5760405162461bcd60e51b815260206004820152601460248201527314185d5cd8589b194e881b9bdd081c185d5cd95960621b6044820152606401610799565b600d805460ff191690557f5db9ee0a495bf2e6ff9c91a7834c1ba4fdd244a5e8aa4e537bd38aeae4b073aa335b6040516117e891906128e6565b60405180910390a1565b600080546001600160a01b038381166001600160a01b0319831681178455604051919092169283917f8be0079c531659141344cd1fd0a4f28419497f9722a3daafe3b4186f6b6457e09190a35050565b600d5460ff16156118885760405162461bcd60e51b815260206004820152601060248201526f14185d5cd8589b194e881c185d5cd95960821b6044820152606401610799565b600d805460ff191660011790557f62e78cea01bee320cd4e420270b5ea74000d11b0c9f74754ebdbfc544b05a2586117db3390565b6000826001600160a01b03168260405160006040518083038185875af1925050503d806000811461190a576040519150601f19603f3d011682016040523d82523d6000602084013e61190f565b606091505b50509050806108ca5760405162461bcd60e51b815260206004820152601060248201526f2a3930b739b332b9103330b4b632b21760811b6044820152606401610799565b6000610e0783836120c4565b600061196a600b5490565b611975906001612e7d565b905061198182826120ee565b604080518281526001600160a01b03841660208201527f527efdb0e41693cd8cbb9c6d2d35c8563b7b73cfdd0790d7d2588c893b91b8c6910160405180910390a15050565b6119d1848484611520565b6119dd84848484612108565b610dda5760405162461bcd60e51b81526004016107999061302b565b606081611a1d5750506040805180820190915260018152600360fc1b602082015290565b8160005b8115611a475780611a3181612e1a565b9150611a409050600a83612e06565b9150611a21565b6000816001600160401b03811115611a6157611a616129e0565b6040519080825280601f01601f191660200182016040528015611a8b576020820181803683370190505b5090505b841561151857611aa0600183613014565b9150611aad600a8661307d565b611ab8906030612e7d565b60f81b818381518110611acd57611acd612d8f565b60200101906001600160f81b031916908160001a905350611aef600a86612e06565b9450611a8f565b805160609080611b16575050604080516020810190915260008152919050565b60006003611b25836002612e7d565b611b2f9190612e06565b611b3a906004612e5e565b90506000611b49826020612e7d565b6001600160401b03811115611b6057611b606129e0565b6040519080825280601f01601f191660200182016040528015611b8a576020820181803683370190505b50905060006040518060600160405280604081526020016131b7604091399050600181016020830160005b86811015611c16576003818a01810151603f601282901c8116860151600c83901c8216870151600684901c831688015192909316870151600891821b60ff94851601821b92841692909201901b91160160e01b835260049092019101611bb5565b506003860660018114611c305760028114611c4157611c4d565b613d3d60f01b600119830152611c4d565b603d60f81b6000198301525b505050918152949350505050565b6060611c66826113cb565b611cca5760405162461bcd60e51b815260206004820152602f60248201527f4552433732314d657461646174613a2055524920717565727920666f72206e6f60448201526e3732bc34b9ba32b73a103a37b5b2b760891b6064820152608401610799565b6000611cd4612212565b90506000815111611cf45760405180602001604052806000815250610e07565b80611cfe846119f9565b604051602001611205929190613091565b6000610699825490565b600083815b8451811015611dd8576000858281518110611d3b57611d3b612d8f565b60200260200101519050848281518110611d5757611d57612d8f565b602002602001015160011415611d98576040805160208101859052908101829052606001604051602081830303815290604052805190602001209250611dc5565b60408051602081018390529081018490526060016040516020818303038152906040528051906020012092505b5080611dd081612e1a565b915050611d1e565b50909414949350505050565b611ded8261092c565b611df78133611f06565b6108ca8383611f6a565b611e0b828261104a565b61138d5760008281526001602081815260408084206001600160a01b0386168086529252808420805460ff19169093179092559051339285917f2f8788117e7eff1d82e926ec794901d17c78024a50270940304540a733656f0d9190a45050565b6000818152600183016020526040812054611eb357508154600181810184556000848152602080822090930184905584548482528286019093526040902091909155610699565b506000610699565b60006001600160e01b031982166380ac58cd60e01b1480611eec57506001600160e01b03198216635b5e139f60e01b145b80610699575061069982612221565b6108ca838383612246565b611f10828261104a565b61138d57611f28816001600160a01b031660146122b8565b611f338360206122b8565b604051602001611f449291906130c0565b60408051601f198184030181529082905262461bcd60e51b8252610799916004016128ba565b611f74828261104a565b1561138d5760008281526001602090815260408083206001600160a01b0385168085529252808320805460ff1916905551339285917ff6391f5c32d9c69d2a47ea670b442974b53935d1edc7fd64eb21e047a839171b9190a45050565b600081815260018301602052604081205480156120ba576000611ff5600183613014565b855490915060009061200990600190613014565b905081811461206e57600086600001828154811061202957612029612d8f565b906000526020600020015490508087600001848154811061204c5761204c612d8f565b6000918252602080832090910192909255918252600188019052604090208390555b855486908061207f5761207f61312f565b600190038181906000526020600020016000905590558560010160008681526020019081526020016000206000905560019350505050610699565b6000915050610699565b60008260000182815481106120db576120db612d8f565b9060005260206000200154905092915050565b61138d828260405180602001604052806000815250612453565b60006001600160a01b0384163b1561220a57604051630a85bd0160e11b81526001600160a01b0385169063150b7a029061214c903390899088908890600401613145565b602060405180830381600087803b15801561216657600080fd5b505af1925050508015612196575060408051601f3d908101601f1916820190925261219391810190613182565b60015b6121f0573d8080156121c4576040519150601f19603f3d011682016040523d82523d6000602084013e6121c9565b606091505b5080516121e85760405162461bcd60e51b81526004016107999061302b565b805181602001fd5b6001600160e01b031916630a85bd0160e11b149050611518565b506001611518565b6060601180546106ae90612cd8565b60006001600160e01b03198216635a05180f60e01b1480610699575061069982612486565b6122518383836124bb565b600d5460ff16156108ca5760405162461bcd60e51b815260206004820152602b60248201527f4552433732315061757361626c653a20746f6b656e207472616e73666572207760448201526a1a1a5b19481c185d5cd95960aa1b6064820152608401610799565b606060006122c7836002612e5e565b6122d2906002612e7d565b6001600160401b038111156122e9576122e96129e0565b6040519080825280601f01601f191660200182016040528015612313576020820181803683370190505b509050600360fc1b8160008151811061232e5761232e612d8f565b60200101906001600160f81b031916908160001a905350600f60fb1b8160018151811061235d5761235d612d8f565b60200101906001600160f81b031916908160001a9053506000612381846002612e5e565b61238c906001612e7d565b90505b6001811115612404576f181899199a1a9b1b9c1cb0b131b232b360811b85600f16601081106123c0576123c0612d8f565b1a60f81b8282815181106123d6576123d6612d8f565b60200101906001600160f81b031916908160001a90535060049490941c936123fd8161319f565b905061238f565b508315610e075760405162461bcd60e51b815260206004820181905260248201527f537472696e67733a20686578206c656e67746820696e73756666696369656e746044820152606401610799565b61245d8383612573565b61246a6000848484612108565b6108ca5760405162461bcd60e51b81526004016107999061302b565b60006001600160e01b03198216637965db0b60e01b148061069957506301ffc9a760e01b6001600160e01b0319831614610699565b6001600160a01b0383166125165761251181600b80546000838152600c60205260408120829055600182018355919091527f0175b7a638427703f0dbe7bb9bbf987a2551717b34e79f33b5b1008d1fa01db90155565b612539565b816001600160a01b0316836001600160a01b03161461253957612539838261269f565b6001600160a01b038216612550576108ca8161273c565b826001600160a01b0316826001600160a01b0316146108ca576108ca82826127eb565b6001600160a01b0382166125c95760405162461bcd60e51b815260206004820181905260248201527f4552433732313a206d696e7420746f20746865207a65726f20616464726573736044820152606401610799565b6125d2816113cb565b1561261e5760405162461bcd60e51b815260206004820152601c60248201527b115490cdcc8c4e881d1bdad95b88185b1c9958591e481b5a5b9d195960221b6044820152606401610799565b61262a60008383611efb565b6001600160a01b0382166000908152600660205260408120805460019290612653908490612e7d565b909155505060008181526005602052604080822080546001600160a01b0319166001600160a01b03861690811790915590518392906000805160206131f7833981519152908290a45050565b600060016126ac84610ba5565b6126b69190613014565b6000838152600a6020526040902054909150808214612709576001600160a01b03841660009081526009602090815260408083208584528252808320548484528184208190558352600a90915290208190555b506000918252600a602090815260408084208490556001600160a01b039094168352600981528383209183525290812055565b600b5460009061274e90600190613014565b6000838152600c6020526040812054600b805493945090928490811061277657612776612d8f565b9060005260206000200154905080600b838154811061279757612797612d8f565b6000918252602080832090910192909255828152600c9091526040808220849055858252812055600b8054806127cf576127cf61312f565b6001900381819060005260206000200160009055905550505050565b60006127f683610ba5565b6001600160a01b0390931660009081526009602090815260408083208684528252808320859055938252600a9052919091209190915550565b6001600160e01b03198116811461138057600080fd5b60006020828403121561285757600080fd5b8135610e078161282f565b60005b8381101561287d578181015183820152602001612865565b83811115610dda5750506000910152565b600081518084526128a6816020860160208601612862565b601f01601f19169290920160200192915050565b602081526000610e07602083018461288e565b6000602082840312156128df57600080fd5b5035919050565b6001600160a01b0391909116815260200190565b80356001600160a01b038116811461122557600080fd5b6000806040838503121561292457600080fd5b61292d836128fa565b946020939093013593505050565b60008060006060848603121561295057600080fd5b612959846128fa565b9250612967602085016128fa565b9150604084013590509250925092565b6000806040838503121561298a57600080fd5b8235915061299a602084016128fa565b90509250929050565b6000602082840312156129b557600080fd5b610e07826128fa565b600080604083850312156129d157600080fd5b50508035926020909101359150565b634e487b7160e01b600052604160045260246000fd5b604051601f8201601f191681016001600160401b0381118282101715612a1e57612a1e6129e0565b604052919050565b60006001600160401b03821115612a3f57612a3f6129e0565b5060051b60200190565b600082601f830112612a5a57600080fd5b81356020612a6f612a6a83612a26565b6129f6565b82815260059290921b84018101918181019086841115612a8e57600080fd5b8286015b84811015612aa95780358352918301918301612a92565b509695505050505050565b60008060008060808587031215612aca57600080fd5b612ad3856128fa565b9350602085013560ff81168114612ae957600080fd5b925060408501356001600160401b0380821115612b0557600080fd5b612b1188838901612a49565b93506060870135915080821115612b2757600080fd5b50612b3487828801612a49565b91505092959194509250565b60008060408385031215612b5357600080fd5b612b5c836128fa565b915060208301358015158114612b7157600080fd5b809150509250929050565b60008060008060808587031215612b9257600080fd5b612b9b856128fa565b93506020612baa8187016128fa565b93506040860135925060608601356001600160401b0380821115612bcd57600080fd5b818801915088601f830112612be157600080fd5b813581811115612bf357612bf36129e0565b612c05601f8201601f191685016129f6565b91508082528984828501011115612c1b57600080fd5b808484018584013760008482840101525080935050505092959194509250565b600080600060608486031215612c5057600080fd5b612c59846128fa565b925060208401356001600160401b0380821115612c7557600080fd5b612c8187838801612a49565b93506040860135915080821115612c9757600080fd5b50612ca486828701612a49565b9150509250925092565b60008060408385031215612cc157600080fd5b612cca836128fa565b915061299a602084016128fa565b600181811c90821680612cec57607f821691505b60208210811415612d0d57634e487b7160e01b600052602260045260246000fd5b50919050565b60208082526011908201527026bab9ba1031329030b71030b236b4b71760791b604082015260600190565b60208082526031908201527f4552433732313a207472616e736665722063616c6c6572206973206e6f74206f6040820152701ddb995c881b9bdc88185c1c1c9bdd9959607a1b606082015260800190565b634e487b7160e01b600052603260045260246000fd5b6020808252818101527f4f776e61626c653a2063616c6c6572206973206e6f7420746865206f776e6572604082015260600190565b634e487b7160e01b600052601260045260246000fd5b634e487b7160e01b600052601160045260246000fd5b600082612e1557612e15612dda565b500490565b6000600019821415612e2e57612e2e612df0565b5060010190565b6020808252600f908201526e29b0b632b9903737ba1037b832b71760891b604082015260600190565b6000816000190483118215151615612e7857612e78612df0565b500290565b60008219821115612e9057612e90612df0565b500190565b600060ff821660ff811415612eac57612eac612df0565b60010192915050565b737b226e616d65223a20224d6574612044414f202360601b81528151600090612ee5816014850160208701612862565b7f222c20226465736372697074696f6e223a2022546865204d6574612044414f2060149390910192830152507f5061737320726570726573656e747320796f7572206d656d626572736869702c60348201527f206772616e74696e672061636365737320746f204d6574612044414f2070657260548201527f6b732e222c2022696d616765223a202268747470733a2f2f697066732e696f2f60748201527f697066732f516d66314572754562636477666768713334526f574e6765683965609482015274645a53474b7341636b6b336e44364d72727643227d60581b60b482015260c901919050565b7f646174613a6170706c69636174696f6e2f6a736f6e3b6261736536342c00000081526000825161300781601d850160208701612862565b91909101601d0192915050565b60008282101561302657613026612df0565b500390565b60208082526032908201527f4552433732313a207472616e7366657220746f206e6f6e20455243373231526560408201527131b2b4bb32b91034b6b83632b6b2b73a32b960711b606082015260800190565b60008261308c5761308c612dda565b500690565b600083516130a3818460208801612862565b8351908301906130b7818360208801612862565b01949350505050565b76020b1b1b2b9b9a1b7b73a3937b61d1030b1b1b7bab73a1604d1b8152600083516130f2816017850160208801612862565b7001034b99036b4b9b9b4b733903937b6329607d1b6017918401918201528351613123816028840160208801612862565b01602801949350505050565b634e487b7160e01b600052603160045260246000fd5b6001600160a01b03858116825284166020820152604081018390526080606082018190526000906131789083018461288e565b9695505050505050565b60006020828403121561319457600080fd5b8151610e078161282f565b6000816131ae576131ae612df0565b50600019019056fe4142434445464748494a4b4c4d4e4f505152535455565758595a6162636465666768696a6b6c6d6e6f707172737475767778797a303132333435363738392b2fddf252ad1be2c89b69c2b068fc378daa952ba7f163c4a11628f55a4df523b3efa264697066735822122047ee3e6b1666d95dae82b87d25bf5fd6501a3377fa640cc191d68a64e88b77c364736f6c63430008090033",
  "linkReferences": {},
  "deployedLinkReferences": {}
}