{
  "_format": "hh-sol-artifact-1",
  "contractName": "MetaDaoNft",
  "sourceName": "contracts/MetaDaoNft.sol",
  "abi": [
    {
      "inputs": [
        {
          "internalType": "address[]",
          "name": "founders",
          "type": "address[]"
        },
        {
          "internalType": "address",
          "name": "artist",
          "type": "address"
        },
        {
          "internalType": "address[]",
          "name": "staff",
          "type": "address[]"
        },
        {
          "internalType": "string",
          "name": "newBaseURI",
          "type": "string"
        }
      ],
      "stateMutability": "nonpayable",
      "type": "constructor"
    },
    {
      "inputs": [],
      "name": "ApprovalCallerNotOwnerNorApproved",
      "type": "error"
    },
    {
      "inputs": [],
      "name": "ApprovalQueryForNonexistentToken",
      "type": "error"
    },
    {
      "inputs": [],
      "name": "ApprovalToCurrentOwner",
      "type": "error"
    },
    {
      "inputs": [],
      "name": "ApproveToCaller",
      "type": "error"
    },
    {
      "inputs": [],
      "name": "BalanceQueryForZeroAddress",
      "type": "error"
    },
    {
      "inputs": [],
      "name": "MintToZeroAddress",
      "type": "error"
    },
    {
      "inputs": [],
      "name": "MintZeroQuantity",
      "type": "error"
    },
    {
      "inputs": [],
      "name": "OwnerIndexOutOfBounds",
      "type": "error"
    },
    {
      "inputs": [],
      "name": "OwnerQueryForNonexistentToken",
      "type": "error"
    },
    {
      "inputs": [],
      "name": "TokenIndexOutOfBounds",
      "type": "error"
    },
    {
      "inputs": [],
      "name": "TransferCallerNotOwnerNorApproved",
      "type": "error"
    },
    {
      "inputs": [],
      "name": "TransferFromIncorrectOwner",
      "type": "error"
    },
    {
      "inputs": [],
      "name": "TransferToNonERC721ReceiverImplementer",
      "type": "error"
    },
    {
      "inputs": [],
      "name": "TransferToZeroAddress",
      "type": "error"
    },
    {
      "inputs": [],
      "name": "URIQueryForNonexistentToken",
      "type": "error"
    },
    {
      "anonymous": false,
      "inputs": [
        {
          "indexed": true,
          "internalType": "address",
          "name": "owner",
          "type": "address"
        },
        {
          "indexed": true,
          "internalType": "address",
          "name": "approved",
          "type": "address"
        },
        {
          "indexed": true,
          "internalType": "uint256",
          "name": "tokenId",
          "type": "uint256"
        }
      ],
      "name": "Approval",
      "type": "event"
    },
    {
      "anonymous": false,
      "inputs": [
        {
          "indexed": true,
          "internalType": "address",
          "name": "owner",
          "type": "address"
        },
        {
          "indexed": true,
          "internalType": "address",
          "name": "operator",
          "type": "address"
        },
        {
          "indexed": false,
          "internalType": "bool",
          "name": "approved",
          "type": "bool"
        }
      ],
      "name": "ApprovalForAll",
      "type": "event"
    },
    {
      "anonymous": false,
      "inputs": [
        {
          "indexed": true,
          "internalType": "address",
          "name": "previousOwner",
          "type": "address"
        },
        {
          "indexed": true,
          "internalType": "address",
          "name": "newOwner",
          "type": "address"
        }
      ],
      "name": "OwnershipTransferred",
      "type": "event"
    },
    {
      "anonymous": false,
      "inputs": [
        {
          "indexed": false,
          "internalType": "uint256",
          "name": "msgValue",
          "type": "uint256"
        }
      ],
      "name": "ReceivedFunds",
      "type": "event"
    },
    {
      "anonymous": false,
      "inputs": [
        {
          "indexed": true,
          "internalType": "bytes32",
          "name": "role",
          "type": "bytes32"
        },
        {
          "indexed": true,
          "internalType": "bytes32",
          "name": "previousAdminRole",
          "type": "bytes32"
        },
        {
          "indexed": true,
          "internalType": "bytes32",
          "name": "newAdminRole",
          "type": "bytes32"
        }
      ],
      "name": "RoleAdminChanged",
      "type": "event"
    },
    {
      "anonymous": false,
      "inputs": [
        {
          "indexed": true,
          "internalType": "bytes32",
          "name": "role",
          "type": "bytes32"
        },
        {
          "indexed": true,
          "internalType": "address",
          "name": "account",
          "type": "address"
        },
        {
          "indexed": true,
          "internalType": "address",
          "name": "sender",
          "type": "address"
        }
      ],
      "name": "RoleGranted",
      "type": "event"
    },
    {
      "anonymous": false,
      "inputs": [
        {
          "indexed": true,
          "internalType": "bytes32",
          "name": "role",
          "type": "bytes32"
        },
        {
          "indexed": true,
          "internalType": "address",
          "name": "account",
          "type": "address"
        },
        {
          "indexed": true,
          "internalType": "address",
          "name": "sender",
          "type": "address"
        }
      ],
      "name": "RoleRevoked",
      "type": "event"
    },
    {
      "anonymous": false,
      "inputs": [
        {
          "indexed": false,
          "internalType": "uint256",
          "name": "numMints",
          "type": "uint256"
        },
        {
          "indexed": false,
          "internalType": "address",
          "name": "recipient",
          "type": "address"
        }
      ],
      "name": "SuccessfulMint",
      "type": "event"
    },
    {
      "anonymous": false,
      "inputs": [
        {
          "indexed": true,
          "internalType": "address",
          "name": "from",
          "type": "address"
        },
        {
          "indexed": true,
          "internalType": "address",
          "name": "to",
          "type": "address"
        },
        {
          "indexed": true,
          "internalType": "uint256",
          "name": "tokenId",
          "type": "uint256"
        }
      ],
      "name": "Transfer",
      "type": "event"
    },
    {
      "inputs": [],
      "name": "ARTIST_ROLE",
      "outputs": [
        {
          "internalType": "bytes32",
          "name": "",
          "type": "bytes32"
        }
      ],
      "stateMutability": "view",
      "type": "function"
    },
    {
      "inputs": [],
      "name": "DEFAULT_ADMIN_ROLE",
      "outputs": [
        {
          "internalType": "bytes32",
          "name": "",
          "type": "bytes32"
        }
      ],
      "stateMutability": "view",
      "type": "function"
    },
    {
      "inputs": [],
      "name": "FOUNDER_ROLE",
      "outputs": [
        {
          "internalType": "bytes32",
          "name": "",
          "type": "bytes32"
        }
      ],
      "stateMutability": "view",
      "type": "function"
    },
    {
      "inputs": [],
      "name": "MAX_MINTS",
      "outputs": [
        {
          "internalType": "uint256",
          "name": "",
          "type": "uint256"
        }
      ],
      "stateMutability": "view",
      "type": "function"
    },
    {
      "inputs": [],
      "name": "PRICE",
      "outputs": [
        {
          "internalType": "uint256",
          "name": "",
          "type": "uint256"
        }
      ],
      "stateMutability": "view",
      "type": "function"
    },
    {
      "inputs": [],
      "name": "allowPublicMinting",
      "outputs": [],
      "stateMutability": "nonpayable",
      "type": "function"
    },
    {
      "inputs": [
        {
          "internalType": "address",
          "name": "to",
          "type": "address"
        },
        {
          "internalType": "uint256",
          "name": "tokenId",
          "type": "uint256"
        }
      ],
      "name": "approve",
      "outputs": [],
      "stateMutability": "nonpayable",
      "type": "function"
    },
    {
      "inputs": [
        {
          "internalType": "address",
          "name": "owner",
          "type": "address"
        }
      ],
      "name": "balanceOf",
      "outputs": [
        {
          "internalType": "uint256",
          "name": "",
          "type": "uint256"
        }
      ],
      "stateMutability": "view",
      "type": "function"
    },
    {
      "inputs": [],
      "name": "disallowPublicMinting",
      "outputs": [],
      "stateMutability": "nonpayable",
      "type": "function"
    },
    {
      "inputs": [
        {
          "internalType": "uint256",
          "name": "tokenId",
          "type": "uint256"
        }
      ],
      "name": "getApproved",
      "outputs": [
        {
          "internalType": "address",
          "name": "",
          "type": "address"
        }
      ],
      "stateMutability": "view",
      "type": "function"
    },
    {
      "inputs": [
        {
          "internalType": "bytes32",
          "name": "role",
          "type": "bytes32"
        }
      ],
      "name": "getRoleAdmin",
      "outputs": [
        {
          "internalType": "bytes32",
          "name": "",
          "type": "bytes32"
        }
      ],
      "stateMutability": "view",
      "type": "function"
    },
    {
      "inputs": [
        {
          "internalType": "bytes32",
          "name": "role",
          "type": "bytes32"
        },
        {
          "internalType": "uint256",
          "name": "index",
          "type": "uint256"
        }
      ],
      "name": "getRoleMember",
      "outputs": [
        {
          "internalType": "address",
          "name": "",
          "type": "address"
        }
      ],
      "stateMutability": "view",
      "type": "function"
    },
    {
      "inputs": [
        {
          "internalType": "bytes32",
          "name": "role",
          "type": "bytes32"
        }
      ],
      "name": "getRoleMemberCount",
      "outputs": [
        {
          "internalType": "uint256",
          "name": "",
          "type": "uint256"
        }
      ],
      "stateMutability": "view",
      "type": "function"
    },
    {
      "inputs": [
        {
          "internalType": "bytes32",
          "name": "role",
          "type": "bytes32"
        },
        {
          "internalType": "address",
          "name": "account",
          "type": "address"
        }
      ],
      "name": "grantRole",
      "outputs": [],
      "stateMutability": "nonpayable",
      "type": "function"
    },
    {
      "inputs": [
        {
          "internalType": "bytes32",
          "name": "role",
          "type": "bytes32"
        },
        {
          "internalType": "address",
          "name": "account",
          "type": "address"
        }
      ],
      "name": "hasRole",
      "outputs": [
        {
          "internalType": "bool",
          "name": "",
          "type": "bool"
        }
      ],
      "stateMutability": "view",
      "type": "function"
    },
    {
      "inputs": [
        {
          "internalType": "address",
          "name": "owner",
          "type": "address"
        },
        {
          "internalType": "address",
          "name": "operator",
          "type": "address"
        }
      ],
      "name": "isApprovedForAll",
      "outputs": [
        {
          "internalType": "bool",
          "name": "",
          "type": "bool"
        }
      ],
      "stateMutability": "view",
      "type": "function"
    },
    {
      "inputs": [],
      "name": "isPublicMintingAllowed",
      "outputs": [
        {
          "internalType": "bool",
          "name": "",
          "type": "bool"
        }
      ],
      "stateMutability": "view",
      "type": "function"
    },
    {
      "inputs": [
        {
          "internalType": "address",
          "name": "recipient",
          "type": "address"
        },
        {
          "internalType": "uint8",
          "name": "numMints",
          "type": "uint8"
        },
        {
          "internalType": "bytes32[]",
          "name": "_proof",
          "type": "bytes32[]"
        },
        {
          "internalType": "uint256[]",
          "name": "_positions",
          "type": "uint256[]"
        }
      ],
      "name": "mint",
      "outputs": [],
      "stateMutability": "payable",
      "type": "function"
    },
    {
      "inputs": [],
      "name": "name",
      "outputs": [
        {
          "internalType": "string",
          "name": "",
          "type": "string"
        }
      ],
      "stateMutability": "view",
      "type": "function"
    },
    {
      "inputs": [],
      "name": "owner",
      "outputs": [
        {
          "internalType": "address",
          "name": "",
          "type": "address"
        }
      ],
      "stateMutability": "view",
      "type": "function"
    },
    {
      "inputs": [
        {
          "internalType": "uint256",
          "name": "tokenId",
          "type": "uint256"
        }
      ],
      "name": "ownerOf",
      "outputs": [
        {
          "internalType": "address",
          "name": "",
          "type": "address"
        }
      ],
      "stateMutability": "view",
      "type": "function"
    },
    {
      "inputs": [],
      "name": "renounceOwnership",
      "outputs": [],
      "stateMutability": "nonpayable",
      "type": "function"
    },
    {
      "inputs": [
        {
          "internalType": "bytes32",
          "name": "role",
          "type": "bytes32"
        },
        {
          "internalType": "address",
          "name": "account",
          "type": "address"
        }
      ],
      "name": "renounceRole",
      "outputs": [],
      "stateMutability": "nonpayable",
      "type": "function"
    },
    {
      "inputs": [
        {
          "internalType": "bytes32",
          "name": "role",
          "type": "bytes32"
        },
        {
          "internalType": "address",
          "name": "account",
          "type": "address"
        }
      ],
      "name": "revokeRole",
      "outputs": [],
      "stateMutability": "nonpayable",
      "type": "function"
    },
    {
      "inputs": [
        {
          "internalType": "address",
          "name": "from",
          "type": "address"
        },
        {
          "internalType": "address",
          "name": "to",
          "type": "address"
        },
        {
          "internalType": "uint256",
          "name": "tokenId",
          "type": "uint256"
        }
      ],
      "name": "safeTransferFrom",
      "outputs": [],
      "stateMutability": "nonpayable",
      "type": "function"
    },
    {
      "inputs": [
        {
          "internalType": "address",
          "name": "from",
          "type": "address"
        },
        {
          "internalType": "address",
          "name": "to",
          "type": "address"
        },
        {
          "internalType": "uint256",
          "name": "tokenId",
          "type": "uint256"
        },
        {
          "internalType": "bytes",
          "name": "_data",
          "type": "bytes"
        }
      ],
      "name": "safeTransferFrom",
      "outputs": [],
      "stateMutability": "nonpayable",
      "type": "function"
    },
    {
      "inputs": [
        {
          "internalType": "address",
          "name": "operator",
          "type": "address"
        },
        {
          "internalType": "bool",
          "name": "approved",
          "type": "bool"
        }
      ],
      "name": "setApprovalForAll",
      "outputs": [],
      "stateMutability": "nonpayable",
      "type": "function"
    },
    {
      "inputs": [
        {
          "internalType": "address",
          "name": "",
          "type": "address"
        }
      ],
      "name": "staffAllocations",
      "outputs": [
        {
          "internalType": "uint256",
          "name": "",
          "type": "uint256"
        }
      ],
      "stateMutability": "view",
      "type": "function"
    },
    {
      "inputs": [],
      "name": "staffMint",
      "outputs": [],
      "stateMutability": "nonpayable",
      "type": "function"
    },
    {
      "inputs": [
        {
          "internalType": "bytes4",
          "name": "interfaceId",
          "type": "bytes4"
        }
      ],
      "name": "supportsInterface",
      "outputs": [
        {
          "internalType": "bool",
          "name": "",
          "type": "bool"
        }
      ],
      "stateMutability": "view",
      "type": "function"
    },
    {
      "inputs": [],
      "name": "symbol",
      "outputs": [
        {
          "internalType": "string",
          "name": "",
          "type": "string"
        }
      ],
      "stateMutability": "view",
      "type": "function"
    },
    {
      "inputs": [
        {
          "internalType": "uint256",
          "name": "index",
          "type": "uint256"
        }
      ],
      "name": "tokenByIndex",
      "outputs": [
        {
          "internalType": "uint256",
          "name": "",
          "type": "uint256"
        }
      ],
      "stateMutability": "view",
      "type": "function"
    },
    {
      "inputs": [
        {
          "internalType": "address",
          "name": "owner",
          "type": "address"
        },
        {
          "internalType": "uint256",
          "name": "index",
          "type": "uint256"
        }
      ],
      "name": "tokenOfOwnerByIndex",
      "outputs": [
        {
          "internalType": "uint256",
          "name": "",
          "type": "uint256"
        }
      ],
      "stateMutability": "view",
      "type": "function"
    },
    {
      "inputs": [
        {
          "internalType": "uint256",
          "name": "tokenId",
          "type": "uint256"
        }
      ],
      "name": "tokenURI",
      "outputs": [
        {
          "internalType": "string",
          "name": "",
          "type": "string"
        }
      ],
      "stateMutability": "view",
      "type": "function"
    },
    {
      "inputs": [],
      "name": "totalSupply",
      "outputs": [
        {
          "internalType": "uint256",
          "name": "",
          "type": "uint256"
        }
      ],
      "stateMutability": "view",
      "type": "function"
    },
    {
      "inputs": [
        {
          "internalType": "address",
          "name": "from",
          "type": "address"
        },
        {
          "internalType": "address",
          "name": "to",
          "type": "address"
        },
        {
          "internalType": "uint256",
          "name": "tokenId",
          "type": "uint256"
        }
      ],
      "name": "transferFrom",
      "outputs": [],
      "stateMutability": "nonpayable",
      "type": "function"
    },
    {
      "inputs": [
        {
          "internalType": "address",
          "name": "newOwner",
          "type": "address"
        }
      ],
      "name": "transferOwnership",
      "outputs": [],
      "stateMutability": "nonpayable",
      "type": "function"
    },
    {
      "inputs": [
        {
          "internalType": "bytes32",
          "name": "whitelistMerkleRoot",
          "type": "bytes32"
        }
      ],
      "name": "updateWhitelist",
      "outputs": [],
      "stateMutability": "nonpayable",
      "type": "function"
    },
    {
      "inputs": [
        {
          "internalType": "address",
          "name": "recipient",
          "type": "address"
        },
        {
          "internalType": "bytes32[]",
          "name": "_proof",
          "type": "bytes32[]"
        },
        {
          "internalType": "uint256[]",
          "name": "_positions",
          "type": "uint256[]"
        }
      ],
      "name": "verifyWhitelist",
      "outputs": [
        {
          "internalType": "bool",
          "name": "",
          "type": "bool"
        }
      ],
      "stateMutability": "view",
      "type": "function"
    },
    {
      "inputs": [],
      "name": "withdrawAll",
      "outputs": [],
      "stateMutability": "nonpayable",
      "type": "function"
    }
  ],
  "bytecode": "0x6080604052600c805460ff191690553480156200001b57600080fd5b50604051620031f9380380620031f98339810160408190526200003e91620005cd565b604080518082018252600c81526b13595d1848111053c813919560a21b60208083019182528351808501909452600a84526913515510511053d3919560b21b908401528151919291620000949160019162000430565b508051620000aa90600290602084019062000430565b505050620000c7620000c16200027160201b60201c565b62000275565b620000d4600033620002c7565b8051620000e990600a90602084019062000430565b5060005b82518110156200014b5760008382815181106200010e576200010e620006ea565b6020908102919091018101516001600160a01b03166000908152600b90915260409020600590555080620001428162000700565b915050620000ed565b5060005b8451811015620001ad576000858281518110620001705762000170620006ea565b6020908102919091018101516001600160a01b03166000908152600b90915260409020601490555080620001a48162000700565b9150506200014f565b506001600160a01b0383166000908152600b6020526040902060149055620001f67f877a78dc988c0ec5f58453b44888a55eb39755c3d5ed8d8ea990912aa3ef29c684620002c7565b60005b84518110156200026657620002517f7ed687a8f2955bd2ba7ca08227e1e364d132be747f42fb733165f923021b02258683815181106200023d576200023d620006ea565b6020026020010151620002c760201b60201c565b806200025d8162000700565b915050620001f9565b505050505062000767565b3390565b600780546001600160a01b038381166001600160a01b0319831681179093556040519116919082907f8be0079c531659141344cd1fd0a4f28419497f9722a3daafe3b4186f6b6457e090600090a35050565b620002d38282620002d7565b5050565b620002ee82826200031a60201b6200139e1760201c565b60008281526009602090815260409091206200031591839062001424620003be821b17901c565b505050565b60008281526008602090815260408083206001600160a01b038516845290915290205460ff16620002d35760008281526008602090815260408083206001600160a01b03851684529091529020805460ff191660011790556200037a3390565b6001600160a01b0316816001600160a01b0316837f2f8788117e7eff1d82e926ec794901d17c78024a50270940304540a733656f0d60405160405180910390a45050565b6000620003d5836001600160a01b038416620003de565b90505b92915050565b60008181526001830160205260408120546200042757508154600181810184556000848152602080822090930184905584548482528286019093526040902091909155620003d8565b506000620003d8565b8280546200043e906200072a565b90600052602060002090601f016020900481019282620004625760008555620004ad565b82601f106200047d57805160ff1916838001178555620004ad565b82800160010185558215620004ad579182015b82811115620004ad57825182559160200191906001019062000490565b50620004bb929150620004bf565b5090565b5b80821115620004bb5760008155600101620004c0565b634e487b7160e01b600052604160045260246000fd5b604051601f8201601f191681016001600160401b0381118282101715620005175762000517620004d6565b604052919050565b80516001600160a01b03811681146200053757600080fd5b919050565b600082601f8301126200054e57600080fd5b815160206001600160401b038211156200056c576200056c620004d6565b8160051b6200057d828201620004ec565b92835284810182019282810190878511156200059857600080fd5b83870192505b84831015620005c257620005b2836200051f565b825291830191908301906200059e565b979650505050505050565b60008060008060808587031215620005e457600080fd5b84516001600160401b0380821115620005fc57600080fd5b6200060a888389016200053c565b9550602091506200061d8288016200051f565b94506040870151818111156200063257600080fd5b6200064089828a016200053c565b9450506060870151818111156200065657600080fd5b8701601f810189136200066857600080fd5b8051828111156200067d576200067d620004d6565b62000691601f8201601f19168501620004ec565b92508083528984828401011115620006a857600080fd5b60005b81811015620006c8578281018501518482018601528401620006ab565b81811115620006da5760008583860101525b5096999598509396509450505050565b634e487b7160e01b600052603260045260246000fd5b60006000198214156200072357634e487b7160e01b600052601160045260246000fd5b5060010190565b600181811c908216806200073f57607f821691505b602082108114156200076157634e487b7160e01b600052602260045260246000fd5b50919050565b612a8280620007776000396000f3fe6080604052600436106101cb5760003560e01c806301ffc9a7146101d057806306fdde0314610205578063081812fc14610227578063095ea7b31461025f57806318160ddd146102815780632152cb02146102a457806323b872dd146102c4578063248a9ca3146102e457806328931087146103045780632f2ff15d146103195780632f745c591461033957806336568abe1461035957806342842e0e14610379578063430f8949146103995780634f6ccce7146103b35780636352211e146103d357806370a08231146103f3578063715018a614610413578063853828b6146104285780638d859f3e1461043d5780638da5cb5b146104585780639010d07c1461046d578063916f3fd31461048d57806391d14854146104a057806395d89b41146104c05780639b6a6f44146104d5578063a217fddf14610502578063a22cb46514610517578063a966a0df14610537578063b88d4fde14610559578063c1e6f30414610579578063c5762ef71461059b578063c87b56dd146105b0578063ca15c873146105d0578063cce132d1146105f0578063d4c04ef214610606578063d547741f14610626578063e6e6cfd314610646578063e985e9c51461065b578063f2fde38b146106a4575b600080fd5b3480156101dc57600080fd5b506101f06101eb366004612263565b6106c4565b60405190151581526020015b60405180910390f35b34801561021157600080fd5b5061021a6106d5565b6040516101fc91906122d8565b34801561023357600080fd5b506102476102423660046122eb565b610767565b6040516001600160a01b0390911681526020016101fc565b34801561026b57600080fd5b5061027f61027a366004612320565b6107ab565b005b34801561028d57600080fd5b50610296610839565b6040519081526020016101fc565b3480156102b057600080fd5b5061027f6102bf3660046122eb565b610858565b3480156102d057600080fd5b5061027f6102df36600461234a565b61088d565b3480156102f057600080fd5b506102966102ff3660046122eb565b610898565b34801561031057600080fd5b5061027f6108ad565b34801561032557600080fd5b5061027f610334366004612386565b6108e0565b34801561034557600080fd5b50610296610354366004612320565b6108fd565b34801561036557600080fd5b5061027f610374366004612386565b6109f9565b34801561038557600080fd5b5061027f61039436600461234a565b610a77565b3480156103a557600080fd5b50600c546101f09060ff1681565b3480156103bf57600080fd5b506102966103ce3660046122eb565b610a92565b3480156103df57600080fd5b506102476103ee3660046122eb565b610b3c565b3480156103ff57600080fd5b5061029661040e3660046123b2565b610b4e565b34801561041f57600080fd5b5061027f610b9c565b34801561043457600080fd5b5061027f610bd7565b34801561044957600080fd5b50610296668e1bc9bf04000081565b34801561046457600080fd5b50610247610cd1565b34801561047957600080fd5b506102476104883660046123cd565b610ce0565b61027f61049b3660046124c3565b610cff565b3480156104ac57600080fd5b506101f06104bb366004612386565b610f7c565b3480156104cc57600080fd5b5061021a610fa7565b3480156104e157600080fd5b506102966104f03660046123b2565b600b6020526000908152604090205481565b34801561050e57600080fd5b50610296600081565b34801561052357600080fd5b5061027f61053236600461254f565b610fb6565b34801561054357600080fd5b506102966000805160206129cd83398151915281565b34801561056557600080fd5b5061027f61057436600461258b565b61104c565b34801561058557600080fd5b50610296600080516020612a2d83398151915281565b3480156105a757600080fd5b5061027f611086565b3480156105bc57600080fd5b5061021a6105cb3660046122eb565b6110bc565b3480156105dc57600080fd5b506102966105eb3660046122eb565b611140565b3480156105fc57600080fd5b5061029661115c81565b34801561061257600080fd5b506101f061062136600461264a565b611157565b34801561063257600080fd5b5061027f610641366004612386565b6111c1565b34801561065257600080fd5b5061027f6111de565b34801561066757600080fd5b506101f06106763660046126bd565b6001600160a01b03918216600090815260066020908152604080832093909416825291909152205460ff1690565b3480156106b057600080fd5b5061027f6106bf3660046123b2565b6112fe565b60006106cf82611439565b92915050565b6060600180546106e4906126e7565b80601f0160208091040260200160405190810160405280929190818152602001828054610710906126e7565b801561075d5780601f106107325761010080835404028352916020019161075d565b820191906000526020600020905b81548152906001019060200180831161074057829003601f168201915b5050505050905090565b60006107728261145e565b61078f576040516333d1c03960e21b815260040160405180910390fd5b506000908152600560205260409020546001600160a01b031690565b60006107b682610b3c565b9050806001600160a01b0316836001600160a01b031614156107eb5760405163250fdee360e21b815260040160405180910390fd5b336001600160a01b0382161480159061080b57506108098133610676565b155b15610829576040516367d9dca160e11b815260040160405180910390fd5b610834838383611492565b505050565b6000546001600160801b03600160801b82048116918116919091031690565b610863600033610f7c565b6108885760405162461bcd60e51b815260040161087f90612722565b60405180910390fd5b600d55565b6108348383836114ee565b60009081526008602052604090206001015490565b6108b8600033610f7c565b6108d45760405162461bcd60e51b815260040161087f90612722565b600c805460ff19169055565b6108e982610898565b6108f381336116f5565b6108348383611759565b600061090883610b4e565b8210610927576040516306ed618760e11b815260040160405180910390fd5b600080546001600160801b03169080805b838110156109f357600081815260036020908152604091829020825160608101845290546001600160a01b0381168252600160a01b81046001600160401b031692820192909252600160e01b90910460ff16158015928201929092529061099f57506109eb565b80516001600160a01b0316156109b457805192505b876001600160a01b0316836001600160a01b031614156109e957868414156109e2575093506106cf92505050565b6001909301925b505b600101610938565b50600080fd5b6001600160a01b0381163314610a695760405162461bcd60e51b815260206004820152602f60248201527f416363657373436f6e74726f6c3a2063616e206f6e6c792072656e6f756e636560448201526e103937b632b9903337b91039b2b63360891b606482015260840161087f565b610a73828261177b565b5050565b6108348383836040518060200160405280600081525061104c565b600080546001600160801b031681805b82811015610b2257600081815260036020908152604091829020825160608101845290546001600160a01b0381168252600160a01b81046001600160401b031692820192909252600160e01b90910460ff16151591810182905290610b195785831415610b125750949350505050565b6001909201915b50600101610aa2565b506040516329c8c00760e21b815260040160405180910390fd5b6000610b478261179d565b5192915050565b60006001600160a01b038216610b77576040516323d3ad8160e21b815260040160405180910390fd5b506001600160a01b03166000908152600460205260409020546001600160401b031690565b33610ba5610cd1565b6001600160a01b031614610bcb5760405162461bcd60e51b815260040161087f9061274d565b610bd560006118bf565b565b476000610bf1600080516020612a2d833981519152611140565b905060008211610c3a5760405162461bcd60e51b81526020600482015260146024820152732737ba3434b733903a37903bb4ba34323930bb9760611b604482015260640161087f565b6000600a610c49846009612798565b610c5391906127cd565b905060005b82811015610ca2576000610c7a600080516020612a2d83398151915283610ce0565b9050610c8f81610c8a86866127cd565b611911565b5080610c9a816127e1565b915050610c58565b50476000610cbe6000805160206129cd83398151915282610ce0565b9050610cca8183611911565b5050505050565b6007546001600160a01b031690565b6000828152600960205260408120610cf890836119a7565b9392505050565b8260ff1661115c610d0e610839565b1415610d2c5760405162461bcd60e51b815260040161087f906127fc565b61115c81610d38610839565b610d42919061281e565b1115610d605760405162461bcd60e51b815260040161087f90612836565b60008460ff1611610db35760405162461bcd60e51b815260206004820152601f60248201527f4d7573742070726f7669646520616e20616d6f756e7420746f206d696e742e00604482015260640161087f565b610dbe600033610f7c565b610f3657610dd660ff8516668e1bc9bf040000612798565b341015610e195760405162461bcd60e51b815260206004820152601160248201527056616c75652062656c6f7720707269636560781b604482015260640161087f565b600c5460ff1615610e8c5760058460ff161115610e875760405162461bcd60e51b815260206004820152602660248201527f43616e206d696e742061206d6178206f66203520647572696e67207075626c69604482015265632073616c6560d01b606482015260840161087f565b610f36565b610e97338484611157565b610ed75760405162461bcd60e51b81526020600482015260116024820152702737ba1037b7103bb434ba32b634b9ba1760791b604482015260640161087f565b60028460ff161115610f365760405162461bcd60e51b815260206004820152602260248201527f43616e206d696e742061206d6178206f66203220647572696e672070726573616044820152616c6560f01b606482015260840161087f565b610f43858560ff166119b3565b6040805160ff861681526001600160a01b03871660208201526000805160206129ed833981519152910160405180910390a15050505050565b60009182526008602090815260408084206001600160a01b0393909316845291905290205460ff1690565b6060600280546106e4906126e7565b6001600160a01b038216331415610fe05760405163b06307db60e01b815260040160405180910390fd5b3360008181526006602090815260408083206001600160a01b03871680855290835292819020805460ff191686151590811790915590519081529192917f17307eab39ab6107e8899845ad3d59bd9653f200f220920489ca2b5937696c31910160405180910390a35050565b6110578484846114ee565b611063848484846119cd565b611080576040516368d2bf6b60e11b815260040160405180910390fd5b50505050565b611091600033610f7c565b6110ad5760405162461bcd60e51b815260040161087f90612722565b600c805460ff19166001179055565b60606110c78261145e565b6110e457604051630a14c4b560e41b815260040160405180910390fd5b60006110ee611adc565b905080516000141561110f5760405180602001604052806000815250610cf8565b8061111984611aeb565b60405160200161112a929190612866565b6040516020818303038152906040529392505050565b60008181526009602052604081206106cf90611be8565b600082516000148061116857508151155b1561117557506000610cf8565b6040516001600160601b0319606086901b1660208201526000906034016040516020818303038152906040528051906020012090506111b8600d54828686611bf2565b95945050505050565b6111ca82610898565b6111d481336116f5565b610834838361177b565b336000908152600b6020526040902054806112375760405162461bcd60e51b81526020600482015260196024820152784d757374206861766520636c61696d61626c65206d696e747360381b604482015260640161087f565b336000908152600b602052604090205461115c611252610839565b14156112705760405162461bcd60e51b815260040161087f906127fc565b61115c8161127c610839565b611286919061281e565b11156112a45760405162461bcd60e51b815260040161087f90612836565b336000818152600b60205260409020546112be91906119b3565b336000818152600b6020908152604080832083905580519283529082019290925281516000805160206129ed833981519152929181900390910190a15050565b33611307610cd1565b6001600160a01b03161461132d5760405162461bcd60e51b815260040161087f9061274d565b6001600160a01b0381166113925760405162461bcd60e51b815260206004820152602660248201527f4f776e61626c653a206e6577206f776e657220697320746865207a65726f206160448201526564647265737360d01b606482015260840161087f565b61139b816118bf565b50565b6113a88282610f7c565b610a735760008281526008602090815260408083206001600160a01b03851684529091529020805460ff191660011790556113e03390565b6001600160a01b0316816001600160a01b0316837f2f8788117e7eff1d82e926ec794901d17c78024a50270940304540a733656f0d60405160405180910390a45050565b6000610cf8836001600160a01b038416611cbd565b60006001600160e01b03198216635a05180f60e01b14806106cf57506106cf82611d0c565b600080546001600160801b0316821080156106cf575050600090815260036020526040902054600160e01b900460ff161590565b60008281526005602052604080822080546001600160a01b0319166001600160a01b0387811691821790925591518593918516917f8c5be1e5ebec7d5bd14f71427d1e84f3dd0314c0f7b2291e5b200ac8c7c3b92591a4505050565b60006114f98261179d565b80519091506000906001600160a01b0316336001600160a01b03161480611527575081516115279033610676565b8061154257503361153784610767565b6001600160a01b0316145b90508061156257604051632ce44b5f60e11b815260040160405180910390fd5b846001600160a01b031682600001516001600160a01b0316146115975760405162a1148160e81b815260040160405180910390fd5b6001600160a01b0384166115be57604051633a954ecd60e21b815260040160405180910390fd5b6115ce6000848460000151611492565b6001600160a01b03858116600090815260046020908152604080832080546001600160401b03198082166001600160401b0392831660001901831617909255898616808652838620805493841693831660019081018416949094179055898652600390945282852080546001600160e01b031916909417600160a01b4290921691909102179092559086018083529120549091166116c0576000546001600160801b03168110156116c057825160008281526003602090815260409091208054918601516001600160401b0316600160a01b026001600160e01b03199092166001600160a01b03909316929092171790555b5082846001600160a01b0316866001600160a01b0316600080516020612a0d83398151915260405160405180910390a4610cca565b6116ff8282610f7c565b610a7357611717816001600160a01b03166014611d31565b611722836020611d31565b604051602001611733929190612895565b60408051601f198184030181529082905262461bcd60e51b825261087f916004016122d8565b611763828261139e565b60008281526009602052604090206108349082611424565b6117858282611ecc565b60008281526009602052604090206108349082611f33565b60408051606081018252600080825260208201819052918101829052905482906001600160801b03168110156118a657600081815260036020908152604091829020825160608101845290546001600160a01b0381168252600160a01b81046001600160401b031692820192909252600160e01b90910460ff161515918101829052906118a45780516001600160a01b03161561183b579392505050565b5060001901600081815260036020908152604091829020825160608101845290546001600160a01b038116808352600160a01b82046001600160401b031693830193909352600160e01b900460ff161515928101929092521561189f579392505050565b61183b565b505b604051636f96cda160e11b815260040160405180910390fd5b600780546001600160a01b038381166001600160a01b0319831681179093556040519116919082907f8be0079c531659141344cd1fd0a4f28419497f9722a3daafe3b4186f6b6457e090600090a35050565b6000826001600160a01b03168260405160006040518083038185875af1925050503d806000811461195e576040519150601f19603f3d011682016040523d82523d6000602084013e611963565b606091505b50509050806108345760405162461bcd60e51b815260206004820152601060248201526f2a3930b739b332b9103330b4b632b21760811b604482015260640161087f565b6000610cf88383611f48565b610a73828260405180602001604052806000815250611f72565b60006001600160a01b0384163b15611ad057604051630a85bd0160e11b81526001600160a01b0385169063150b7a0290611a11903390899088908890600401612904565b602060405180830381600087803b158015611a2b57600080fd5b505af1925050508015611a5b575060408051601f3d908101601f19168201909252611a5891810190612941565b60015b611ab6573d808015611a89576040519150601f19603f3d011682016040523d82523d6000602084013e611a8e565b606091505b508051611aae576040516368d2bf6b60e11b815260040160405180910390fd5b805181602001fd5b6001600160e01b031916630a85bd0160e11b149050611ad4565b5060015b949350505050565b6060600a80546106e4906126e7565b606081611b0f5750506040805180820190915260018152600360fc1b602082015290565b8160005b8115611b395780611b23816127e1565b9150611b329050600a836127cd565b9150611b13565b6000816001600160401b03811115611b5357611b536123ef565b6040519080825280601f01601f191660200182016040528015611b7d576020820181803683370190505b5090505b8415611ad457611b9260018361295e565b9150611b9f600a86612975565b611baa90603061281e565b60f81b818381518110611bbf57611bbf612989565b60200101906001600160f81b031916908160001a905350611be1600a866127cd565b9450611b81565b60006106cf825490565b600083815b8451811015611cb1576000858281518110611c1457611c14612989565b60200260200101519050848281518110611c3057611c30612989565b602002602001015160011415611c71576040805160208101859052908101829052606001604051602081830303815290604052805190602001209250611c9e565b60408051602081018390529081018490526060016040516020818303038152906040528051906020012092505b5080611ca9816127e1565b915050611bf7565b50909414949350505050565b6000818152600183016020526040812054611d04575081546001818101845560008481526020808220909301849055845484825282860190935260409020919091556106cf565b5060006106cf565b60006001600160e01b03198216637965db0b60e01b14806106cf57506106cf82611f7f565b60606000611d40836002612798565b611d4b90600261281e565b6001600160401b03811115611d6257611d626123ef565b6040519080825280601f01601f191660200182016040528015611d8c576020820181803683370190505b509050600360fc1b81600081518110611da757611da7612989565b60200101906001600160f81b031916908160001a905350600f60fb1b81600181518110611dd657611dd6612989565b60200101906001600160f81b031916908160001a9053506000611dfa846002612798565b611e0590600161281e565b90505b6001811115611e7d576f181899199a1a9b1b9c1cb0b131b232b360811b85600f1660108110611e3957611e39612989565b1a60f81b828281518110611e4f57611e4f612989565b60200101906001600160f81b031916908160001a90535060049490941c93611e768161299f565b9050611e08565b508315610cf85760405162461bcd60e51b815260206004820181905260248201527f537472696e67733a20686578206c656e67746820696e73756666696369656e74604482015260640161087f565b611ed68282610f7c565b15610a735760008281526008602090815260408083206001600160a01b0385168085529252808320805460ff1916905551339285917ff6391f5c32d9c69d2a47ea670b442974b53935d1edc7fd64eb21e047a839171b9190a45050565b6000610cf8836001600160a01b038416611fea565b6000826000018281548110611f5f57611f5f612989565b9060005260206000200154905092915050565b61083483838360016120dd565b60006001600160e01b031982166380ac58cd60e01b1480611fb057506001600160e01b03198216635b5e139f60e01b145b80611fcb57506001600160e01b0319821663780e9d6360e01b145b806106cf57506301ffc9a760e01b6001600160e01b03198316146106cf565b600081815260018301602052604081205480156120d357600061200e60018361295e565b85549091506000906120229060019061295e565b905081811461208757600086600001828154811061204257612042612989565b906000526020600020015490508087600001848154811061206557612065612989565b6000918252602080832090910192909255918252600188019052604090208390555b8554869080612098576120986129b6565b6001900381819060005260206000200160009055905585600101600086815260200190815260200160002060009055600193505050506106cf565b60009150506106cf565b6000546001600160801b03166001600160a01b03851661210f57604051622e076360e81b815260040160405180910390fd5b8361212d5760405163b562e8dd60e01b815260040160405180910390fd5b6001600160a01b038516600081815260046020908152604080832080546001600160801b031981166001600160401b038083168c018116918217600160401b6001600160401b031990941690921783900481168c018116909202179091558584526003909252822080546001600160e01b031916909317600160a01b42909216919091021790915581905b858110156122275760405182906001600160a01b03891690600090600080516020612a0d833981519152908290a48380156121fd57506121fb60008884886119cd565b155b1561221b576040516368d2bf6b60e11b815260040160405180910390fd5b600191820191016121b8565b50600080546001600160801b0319166001600160801b0392909216919091179055610cca565b6001600160e01b03198116811461139b57600080fd5b60006020828403121561227557600080fd5b8135610cf88161224d565b60005b8381101561229b578181015183820152602001612283565b838111156110805750506000910152565b600081518084526122c4816020860160208601612280565b601f01601f19169290920160200192915050565b602081526000610cf860208301846122ac565b6000602082840312156122fd57600080fd5b5035919050565b80356001600160a01b038116811461231b57600080fd5b919050565b6000806040838503121561233357600080fd5b61233c83612304565b946020939093013593505050565b60008060006060848603121561235f57600080fd5b61236884612304565b925061237660208501612304565b9150604084013590509250925092565b6000806040838503121561239957600080fd5b823591506123a960208401612304565b90509250929050565b6000602082840312156123c457600080fd5b610cf882612304565b600080604083850312156123e057600080fd5b50508035926020909101359150565b634e487b7160e01b600052604160045260246000fd5b604051601f8201601f191681016001600160401b038111828210171561242d5761242d6123ef565b604052919050565b60006001600160401b0382111561244e5761244e6123ef565b5060051b60200190565b600082601f83011261246957600080fd5b8135602061247e61247983612435565b612405565b82815260059290921b8401810191818101908684111561249d57600080fd5b8286015b848110156124b857803583529183019183016124a1565b509695505050505050565b600080600080608085870312156124d957600080fd5b6124e285612304565b9350602085013560ff811681146124f857600080fd5b925060408501356001600160401b038082111561251457600080fd5b61252088838901612458565b9350606087013591508082111561253657600080fd5b5061254387828801612458565b91505092959194509250565b6000806040838503121561256257600080fd5b61256b83612304565b91506020830135801515811461258057600080fd5b809150509250929050565b600080600080608085870312156125a157600080fd5b6125aa85612304565b935060206125b9818701612304565b93506040860135925060608601356001600160401b03808211156125dc57600080fd5b818801915088601f8301126125f057600080fd5b813581811115612602576126026123ef565b612614601f8201601f19168501612405565b9150808252898482850101111561262a57600080fd5b808484018584013760008482840101525080935050505092959194509250565b60008060006060848603121561265f57600080fd5b61266884612304565b925060208401356001600160401b038082111561268457600080fd5b61269087838801612458565b935060408601359150808211156126a657600080fd5b506126b386828701612458565b9150509250925092565b600080604083850312156126d057600080fd5b6126d983612304565b91506123a960208401612304565b600181811c908216806126fb57607f821691505b6020821081141561271c57634e487b7160e01b600052602260045260246000fd5b50919050565b60208082526011908201527026bab9ba1031329030b71030b236b4b71760791b604082015260600190565b6020808252818101527f4f776e61626c653a2063616c6c6572206973206e6f7420746865206f776e6572604082015260600190565b634e487b7160e01b600052601160045260246000fd5b60008160001904831182151516156127b2576127b2612782565b500290565b634e487b7160e01b600052601260045260246000fd5b6000826127dc576127dc6127b7565b500490565b60006000198214156127f5576127f5612782565b5060010190565b602080825260089082015267536f6c646f75742160c01b604082015260600190565b6000821982111561283157612831612782565b500190565b6020808252601690820152752737ba1032b737bab3b41036b4b73a39903632b33a1760511b604082015260600190565b60008351612878818460208801612280565b83519083019061288c818360208801612280565b01949350505050565b76020b1b1b2b9b9a1b7b73a3937b61d1030b1b1b7bab73a1604d1b8152600083516128c7816017850160208801612280565b7001034b99036b4b9b9b4b733903937b6329607d1b60179184019182015283516128f8816028840160208801612280565b01602801949350505050565b6001600160a01b0385811682528416602082015260408101839052608060608201819052600090612937908301846122ac565b9695505050505050565b60006020828403121561295357600080fd5b8151610cf88161224d565b60008282101561297057612970612782565b500390565b600082612984576129846127b7565b500690565b634e487b7160e01b600052603260045260246000fd5b6000816129ae576129ae612782565b506000190190565b634e487b7160e01b600052603160045260246000fdfe877a78dc988c0ec5f58453b44888a55eb39755c3d5ed8d8ea990912aa3ef29c6527efdb0e41693cd8cbb9c6d2d35c8563b7b73cfdd0790d7d2588c893b91b8c6ddf252ad1be2c89b69c2b068fc378daa952ba7f163c4a11628f55a4df523b3ef7ed687a8f2955bd2ba7ca08227e1e364d132be747f42fb733165f923021b0225a26469706673582212202b0b03ca065dba0cf50f8397605f302028d504a5351b021f88e85ecf023e937a64736f6c63430008090033",
  "linkReferences": {},
  "deployedLinkReferences": {}
}