{
  "_format": "hh-sol-artifact-1",
  "contractName": "MetaDaoNft",
  "sourceName": "contracts/MetaDaoNft.sol",
  "abi": [
    {
      "inputs": [
        {
          "internalType": "address[]",
          "name": "founders",
          "type": "address[]"
        },
        {
          "internalType": "address",
          "name": "artist",
          "type": "address"
        },
        {
          "internalType": "address[]",
          "name": "staff",
          "type": "address[]"
        },
        {
          "internalType": "string",
          "name": "newBaseURI",
          "type": "string"
        }
      ],
      "stateMutability": "nonpayable",
      "type": "constructor"
    },
    {
      "anonymous": false,
      "inputs": [
        {
          "indexed": true,
          "internalType": "address",
          "name": "owner",
          "type": "address"
        },
        {
          "indexed": true,
          "internalType": "address",
          "name": "approved",
          "type": "address"
        },
        {
          "indexed": true,
          "internalType": "uint256",
          "name": "tokenId",
          "type": "uint256"
        }
      ],
      "name": "Approval",
      "type": "event"
    },
    {
      "anonymous": false,
      "inputs": [
        {
          "indexed": true,
          "internalType": "address",
          "name": "owner",
          "type": "address"
        },
        {
          "indexed": true,
          "internalType": "address",
          "name": "operator",
          "type": "address"
        },
        {
          "indexed": false,
          "internalType": "bool",
          "name": "approved",
          "type": "bool"
        }
      ],
      "name": "ApprovalForAll",
      "type": "event"
    },
    {
      "anonymous": false,
      "inputs": [
        {
          "indexed": true,
          "internalType": "address",
          "name": "previousOwner",
          "type": "address"
        },
        {
          "indexed": true,
          "internalType": "address",
          "name": "newOwner",
          "type": "address"
        }
      ],
      "name": "OwnershipTransferred",
      "type": "event"
    },
    {
      "anonymous": false,
      "inputs": [
        {
          "indexed": true,
          "internalType": "bytes32",
          "name": "role",
          "type": "bytes32"
        },
        {
          "indexed": true,
          "internalType": "bytes32",
          "name": "previousAdminRole",
          "type": "bytes32"
        },
        {
          "indexed": true,
          "internalType": "bytes32",
          "name": "newAdminRole",
          "type": "bytes32"
        }
      ],
      "name": "RoleAdminChanged",
      "type": "event"
    },
    {
      "anonymous": false,
      "inputs": [
        {
          "indexed": true,
          "internalType": "bytes32",
          "name": "role",
          "type": "bytes32"
        },
        {
          "indexed": true,
          "internalType": "address",
          "name": "account",
          "type": "address"
        },
        {
          "indexed": true,
          "internalType": "address",
          "name": "sender",
          "type": "address"
        }
      ],
      "name": "RoleGranted",
      "type": "event"
    },
    {
      "anonymous": false,
      "inputs": [
        {
          "indexed": true,
          "internalType": "bytes32",
          "name": "role",
          "type": "bytes32"
        },
        {
          "indexed": true,
          "internalType": "address",
          "name": "account",
          "type": "address"
        },
        {
          "indexed": true,
          "internalType": "address",
          "name": "sender",
          "type": "address"
        }
      ],
      "name": "RoleRevoked",
      "type": "event"
    },
    {
      "anonymous": false,
      "inputs": [
        {
          "indexed": false,
          "internalType": "uint256",
          "name": "tokenId",
          "type": "uint256"
        },
        {
          "indexed": false,
          "internalType": "address",
          "name": "recipient",
          "type": "address"
        }
      ],
      "name": "SuccessfulMint",
      "type": "event"
    },
    {
      "anonymous": false,
      "inputs": [
        {
          "indexed": true,
          "internalType": "address",
          "name": "from",
          "type": "address"
        },
        {
          "indexed": true,
          "internalType": "address",
          "name": "to",
          "type": "address"
        },
        {
          "indexed": true,
          "internalType": "uint256",
          "name": "tokenId",
          "type": "uint256"
        }
      ],
      "name": "Transfer",
      "type": "event"
    },
    {
      "inputs": [],
      "name": "ARTIST_ROLE",
      "outputs": [
        {
          "internalType": "bytes32",
          "name": "",
          "type": "bytes32"
        }
      ],
      "stateMutability": "view",
      "type": "function"
    },
    {
      "inputs": [],
      "name": "DEFAULT_ADMIN_ROLE",
      "outputs": [
        {
          "internalType": "bytes32",
          "name": "",
          "type": "bytes32"
        }
      ],
      "stateMutability": "view",
      "type": "function"
    },
    {
      "inputs": [],
      "name": "FOUNDER_ROLE",
      "outputs": [
        {
          "internalType": "bytes32",
          "name": "",
          "type": "bytes32"
        }
      ],
      "stateMutability": "view",
      "type": "function"
    },
    {
      "inputs": [],
      "name": "MAX_MINTS",
      "outputs": [
        {
          "internalType": "uint256",
          "name": "",
          "type": "uint256"
        }
      ],
      "stateMutability": "view",
      "type": "function"
    },
    {
      "inputs": [],
      "name": "PRICE",
      "outputs": [
        {
          "internalType": "uint256",
          "name": "",
          "type": "uint256"
        }
      ],
      "stateMutability": "view",
      "type": "function"
    },
    {
      "inputs": [],
      "name": "allowPublicMinting",
      "outputs": [],
      "stateMutability": "nonpayable",
      "type": "function"
    },
    {
      "inputs": [
        {
          "internalType": "address",
          "name": "to",
          "type": "address"
        },
        {
          "internalType": "uint256",
          "name": "tokenId",
          "type": "uint256"
        }
      ],
      "name": "approve",
      "outputs": [],
      "stateMutability": "nonpayable",
      "type": "function"
    },
    {
      "inputs": [
        {
          "internalType": "address",
          "name": "owner",
          "type": "address"
        }
      ],
      "name": "balanceOf",
      "outputs": [
        {
          "internalType": "uint256",
          "name": "",
          "type": "uint256"
        }
      ],
      "stateMutability": "view",
      "type": "function"
    },
    {
      "inputs": [],
      "name": "disallowPublicMinting",
      "outputs": [],
      "stateMutability": "nonpayable",
      "type": "function"
    },
    {
      "inputs": [
        {
          "internalType": "uint256",
          "name": "tokenId",
          "type": "uint256"
        }
      ],
      "name": "getApproved",
      "outputs": [
        {
          "internalType": "address",
          "name": "",
          "type": "address"
        }
      ],
      "stateMutability": "view",
      "type": "function"
    },
    {
      "inputs": [
        {
          "internalType": "bytes32",
          "name": "role",
          "type": "bytes32"
        }
      ],
      "name": "getRoleAdmin",
      "outputs": [
        {
          "internalType": "bytes32",
          "name": "",
          "type": "bytes32"
        }
      ],
      "stateMutability": "view",
      "type": "function"
    },
    {
      "inputs": [
        {
          "internalType": "bytes32",
          "name": "role",
          "type": "bytes32"
        },
        {
          "internalType": "uint256",
          "name": "index",
          "type": "uint256"
        }
      ],
      "name": "getRoleMember",
      "outputs": [
        {
          "internalType": "address",
          "name": "",
          "type": "address"
        }
      ],
      "stateMutability": "view",
      "type": "function"
    },
    {
      "inputs": [
        {
          "internalType": "bytes32",
          "name": "role",
          "type": "bytes32"
        }
      ],
      "name": "getRoleMemberCount",
      "outputs": [
        {
          "internalType": "uint256",
          "name": "",
          "type": "uint256"
        }
      ],
      "stateMutability": "view",
      "type": "function"
    },
    {
      "inputs": [
        {
          "internalType": "bytes32",
          "name": "role",
          "type": "bytes32"
        },
        {
          "internalType": "address",
          "name": "account",
          "type": "address"
        }
      ],
      "name": "grantRole",
      "outputs": [],
      "stateMutability": "nonpayable",
      "type": "function"
    },
    {
      "inputs": [
        {
          "internalType": "bytes32",
          "name": "role",
          "type": "bytes32"
        },
        {
          "internalType": "address",
          "name": "account",
          "type": "address"
        }
      ],
      "name": "hasRole",
      "outputs": [
        {
          "internalType": "bool",
          "name": "",
          "type": "bool"
        }
      ],
      "stateMutability": "view",
      "type": "function"
    },
    {
      "inputs": [
        {
          "internalType": "address",
          "name": "owner",
          "type": "address"
        },
        {
          "internalType": "address",
          "name": "operator",
          "type": "address"
        }
      ],
      "name": "isApprovedForAll",
      "outputs": [
        {
          "internalType": "bool",
          "name": "",
          "type": "bool"
        }
      ],
      "stateMutability": "view",
      "type": "function"
    },
    {
      "inputs": [],
      "name": "isPublicMintingAllowed",
      "outputs": [
        {
          "internalType": "bool",
          "name": "",
          "type": "bool"
        }
      ],
      "stateMutability": "view",
      "type": "function"
    },
    {
      "inputs": [
        {
          "internalType": "address",
          "name": "recipient",
          "type": "address"
        },
        {
          "internalType": "uint8",
          "name": "numMints",
          "type": "uint8"
        },
        {
          "internalType": "bytes32[]",
          "name": "_proof",
          "type": "bytes32[]"
        },
        {
          "internalType": "uint256[]",
          "name": "_positions",
          "type": "uint256[]"
        }
      ],
      "name": "mint",
      "outputs": [],
      "stateMutability": "payable",
      "type": "function"
    },
    {
      "inputs": [],
      "name": "name",
      "outputs": [
        {
          "internalType": "string",
          "name": "",
          "type": "string"
        }
      ],
      "stateMutability": "view",
      "type": "function"
    },
    {
      "inputs": [],
      "name": "owner",
      "outputs": [
        {
          "internalType": "address",
          "name": "",
          "type": "address"
        }
      ],
      "stateMutability": "view",
      "type": "function"
    },
    {
      "inputs": [
        {
          "internalType": "uint256",
          "name": "tokenId",
          "type": "uint256"
        }
      ],
      "name": "ownerOf",
      "outputs": [
        {
          "internalType": "address",
          "name": "",
          "type": "address"
        }
      ],
      "stateMutability": "view",
      "type": "function"
    },
    {
      "inputs": [],
      "name": "renounceOwnership",
      "outputs": [],
      "stateMutability": "nonpayable",
      "type": "function"
    },
    {
      "inputs": [
        {
          "internalType": "bytes32",
          "name": "role",
          "type": "bytes32"
        },
        {
          "internalType": "address",
          "name": "account",
          "type": "address"
        }
      ],
      "name": "renounceRole",
      "outputs": [],
      "stateMutability": "nonpayable",
      "type": "function"
    },
    {
      "inputs": [
        {
          "internalType": "bytes32",
          "name": "role",
          "type": "bytes32"
        },
        {
          "internalType": "address",
          "name": "account",
          "type": "address"
        }
      ],
      "name": "revokeRole",
      "outputs": [],
      "stateMutability": "nonpayable",
      "type": "function"
    },
    {
      "inputs": [
        {
          "internalType": "address",
          "name": "from",
          "type": "address"
        },
        {
          "internalType": "address",
          "name": "to",
          "type": "address"
        },
        {
          "internalType": "uint256",
          "name": "tokenId",
          "type": "uint256"
        }
      ],
      "name": "safeTransferFrom",
      "outputs": [],
      "stateMutability": "nonpayable",
      "type": "function"
    },
    {
      "inputs": [
        {
          "internalType": "address",
          "name": "from",
          "type": "address"
        },
        {
          "internalType": "address",
          "name": "to",
          "type": "address"
        },
        {
          "internalType": "uint256",
          "name": "tokenId",
          "type": "uint256"
        },
        {
          "internalType": "bytes",
          "name": "_data",
          "type": "bytes"
        }
      ],
      "name": "safeTransferFrom",
      "outputs": [],
      "stateMutability": "nonpayable",
      "type": "function"
    },
    {
      "inputs": [
        {
          "internalType": "address",
          "name": "operator",
          "type": "address"
        },
        {
          "internalType": "bool",
          "name": "approved",
          "type": "bool"
        }
      ],
      "name": "setApprovalForAll",
      "outputs": [],
      "stateMutability": "nonpayable",
      "type": "function"
    },
    {
      "inputs": [
        {
          "internalType": "address",
          "name": "",
          "type": "address"
        }
      ],
      "name": "staffAllocations",
      "outputs": [
        {
          "internalType": "uint256",
          "name": "",
          "type": "uint256"
        }
      ],
      "stateMutability": "view",
      "type": "function"
    },
    {
      "inputs": [],
      "name": "staffMint",
      "outputs": [],
      "stateMutability": "nonpayable",
      "type": "function"
    },
    {
      "inputs": [
        {
          "internalType": "bytes4",
          "name": "interfaceId",
          "type": "bytes4"
        }
      ],
      "name": "supportsInterface",
      "outputs": [
        {
          "internalType": "bool",
          "name": "",
          "type": "bool"
        }
      ],
      "stateMutability": "view",
      "type": "function"
    },
    {
      "inputs": [],
      "name": "symbol",
      "outputs": [
        {
          "internalType": "string",
          "name": "",
          "type": "string"
        }
      ],
      "stateMutability": "view",
      "type": "function"
    },
    {
      "inputs": [
        {
          "internalType": "uint256",
          "name": "index",
          "type": "uint256"
        }
      ],
      "name": "tokenByIndex",
      "outputs": [
        {
          "internalType": "uint256",
          "name": "",
          "type": "uint256"
        }
      ],
      "stateMutability": "view",
      "type": "function"
    },
    {
      "inputs": [
        {
          "internalType": "address",
          "name": "owner",
          "type": "address"
        },
        {
          "internalType": "uint256",
          "name": "index",
          "type": "uint256"
        }
      ],
      "name": "tokenOfOwnerByIndex",
      "outputs": [
        {
          "internalType": "uint256",
          "name": "",
          "type": "uint256"
        }
      ],
      "stateMutability": "view",
      "type": "function"
    },
    {
      "inputs": [
        {
          "internalType": "uint256",
          "name": "tokenId",
          "type": "uint256"
        }
      ],
      "name": "tokenURI",
      "outputs": [
        {
          "internalType": "string",
          "name": "",
          "type": "string"
        }
      ],
      "stateMutability": "view",
      "type": "function"
    },
    {
      "inputs": [],
      "name": "totalSupply",
      "outputs": [
        {
          "internalType": "uint256",
          "name": "",
          "type": "uint256"
        }
      ],
      "stateMutability": "view",
      "type": "function"
    },
    {
      "inputs": [
        {
          "internalType": "address",
          "name": "from",
          "type": "address"
        },
        {
          "internalType": "address",
          "name": "to",
          "type": "address"
        },
        {
          "internalType": "uint256",
          "name": "tokenId",
          "type": "uint256"
        }
      ],
      "name": "transferFrom",
      "outputs": [],
      "stateMutability": "nonpayable",
      "type": "function"
    },
    {
      "inputs": [
        {
          "internalType": "address",
          "name": "newOwner",
          "type": "address"
        }
      ],
      "name": "transferOwnership",
      "outputs": [],
      "stateMutability": "nonpayable",
      "type": "function"
    },
    {
      "inputs": [
        {
          "internalType": "bytes32",
          "name": "whitelistMerkleRoot",
          "type": "bytes32"
        }
      ],
      "name": "updateWhitelist",
      "outputs": [],
      "stateMutability": "nonpayable",
      "type": "function"
    },
    {
      "inputs": [
        {
          "internalType": "address",
          "name": "recipient",
          "type": "address"
        },
        {
          "internalType": "bytes32[]",
          "name": "_proof",
          "type": "bytes32[]"
        },
        {
          "internalType": "uint256[]",
          "name": "_positions",
          "type": "uint256[]"
        }
      ],
      "name": "verifyWhitelist",
      "outputs": [
        {
          "internalType": "bool",
          "name": "",
          "type": "bool"
        }
      ],
      "stateMutability": "view",
      "type": "function"
    },
    {
      "inputs": [],
      "name": "withdrawAll",
      "outputs": [],
      "stateMutability": "nonpayable",
      "type": "function"
    }
  ],
  "bytecode": "0x6080604052600f805460ff191690553480156200001b57600080fd5b50604051620035f4380380620035f48339810160408190526200003e91620005cd565b604080518082018252600c81526b13595d1848111053c813919560a21b60208083019182528351808501909452600a84526913515510511053d3919560b21b908401528151919291620000949160009162000430565b508051620000aa90600190602084019062000430565b505050620000c7620000c16200027160201b60201c565b62000275565b620000d4600033620002c7565b8051620000e990600d90602084019062000430565b5060005b82518110156200014b5760008382815181106200010e576200010e620006ea565b6020908102919091018101516001600160a01b03166000908152600e90915260409020600590555080620001428162000700565b915050620000ed565b5060005b8451811015620001ad576000858281518110620001705762000170620006ea565b6020908102919091018101516001600160a01b03166000908152600e90915260409020601490555080620001a48162000700565b9150506200014f565b506001600160a01b0383166000908152600e6020526040902060149055620001f67f877a78dc988c0ec5f58453b44888a55eb39755c3d5ed8d8ea990912aa3ef29c684620002c7565b60005b84518110156200026657620002517f7ed687a8f2955bd2ba7ca08227e1e364d132be747f42fb733165f923021b02258683815181106200023d576200023d620006ea565b6020026020010151620002c760201b60201c565b806200025d8162000700565b915050620001f9565b505050505062000767565b3390565b600a80546001600160a01b038381166001600160a01b0319831681179093556040519116919082907f8be0079c531659141344cd1fd0a4f28419497f9722a3daafe3b4186f6b6457e090600090a35050565b620002de82826200030a60201b6200148f1760201c565b6000828152600c60209081526040909120620003059183906200149d6200031a821b17901c565b505050565b6200031682826200033a565b5050565b600062000331836001600160a01b038416620003de565b90505b92915050565b6000828152600b602090815260408083206001600160a01b038516845290915290205460ff1662000316576000828152600b602090815260408083206001600160a01b03851684529091529020805460ff191660011790556200039a3390565b6001600160a01b0316816001600160a01b0316837f2f8788117e7eff1d82e926ec794901d17c78024a50270940304540a733656f0d60405160405180910390a45050565b6000818152600183016020526040812054620004275750815460018181018455600084815260208082209093018490558454848252828601909352604090209190915562000334565b50600062000334565b8280546200043e906200072a565b90600052602060002090601f016020900481019282620004625760008555620004ad565b82601f106200047d57805160ff1916838001178555620004ad565b82800160010185558215620004ad579182015b82811115620004ad57825182559160200191906001019062000490565b50620004bb929150620004bf565b5090565b5b80821115620004bb5760008155600101620004c0565b634e487b7160e01b600052604160045260246000fd5b604051601f8201601f191681016001600160401b0381118282101715620005175762000517620004d6565b604052919050565b80516001600160a01b03811681146200053757600080fd5b919050565b600082601f8301126200054e57600080fd5b815160206001600160401b038211156200056c576200056c620004d6565b8160051b6200057d828201620004ec565b92835284810182019282810190878511156200059857600080fd5b83870192505b84831015620005c257620005b2836200051f565b825291830191908301906200059e565b979650505050505050565b60008060008060808587031215620005e457600080fd5b84516001600160401b0380821115620005fc57600080fd5b6200060a888389016200053c565b9550602091506200061d8288016200051f565b94506040870151818111156200063257600080fd5b6200064089828a016200053c565b9450506060870151818111156200065657600080fd5b8701601f810189136200066857600080fd5b8051828111156200067d576200067d620004d6565b62000691601f8201601f19168501620004ec565b92508083528984828401011115620006a857600080fd5b60005b81811015620006c8578281018501518482018601528401620006ab565b81811115620006da5760008583860101525b5096999598509396509450505050565b634e487b7160e01b600052603260045260246000fd5b60006000198214156200072357634e487b7160e01b600052601160045260246000fd5b5060010190565b600181811c908216806200073f57607f821691505b602082108114156200076157634e487b7160e01b600052602260045260246000fd5b50919050565b612e7d80620007776000396000f3fe6080604052600436106101cb5760003560e01c806301ffc9a7146101d057806306fdde0314610205578063081812fc14610227578063095ea7b31461025f57806318160ddd146102815780632152cb02146102a057806323b872dd146102c0578063248a9ca3146102e057806328931087146103005780632f2ff15d146103155780632f745c591461033557806336568abe1461035557806342842e0e14610375578063430f8949146103955780634f6ccce7146103af5780636352211e146103cf57806370a08231146103ef578063715018a61461040f578063853828b6146104245780638d859f3e146104395780638da5cb5b146104545780639010d07c14610469578063916f3fd31461048957806391d148541461049c57806395d89b41146104bc5780639b6a6f44146104d1578063a217fddf146104fe578063a22cb46514610513578063a966a0df14610533578063b88d4fde14610555578063c1e6f30414610575578063c5762ef714610597578063c87b56dd146105ac578063ca15c873146105cc578063cce132d1146105ec578063d4c04ef214610602578063d547741f14610622578063e6e6cfd314610642578063e985e9c514610657578063f2fde38b14610677575b600080fd5b3480156101dc57600080fd5b506101f06101eb3660046125db565b610697565b60405190151581526020015b60405180910390f35b34801561021157600080fd5b5061021a6106a8565b6040516101fc9190612650565b34801561023357600080fd5b50610247610242366004612663565b61073a565b6040516001600160a01b0390911681526020016101fc565b34801561026b57600080fd5b5061027f61027a366004612698565b6107c7565b005b34801561028d57600080fd5b506008545b6040519081526020016101fc565b3480156102ac57600080fd5b5061027f6102bb366004612663565b6108d8565b3480156102cc57600080fd5b5061027f6102db3660046126c2565b610904565b3480156102ec57600080fd5b506102926102fb366004612663565b610935565b34801561030c57600080fd5b5061027f61094a565b34801561032157600080fd5b5061027f6103303660046126fe565b61097d565b34801561034157600080fd5b50610292610350366004612698565b61099f565b34801561036157600080fd5b5061027f6103703660046126fe565b610a35565b34801561038157600080fd5b5061027f6103903660046126c2565b610a57565b3480156103a157600080fd5b50600f546101f09060ff1681565b3480156103bb57600080fd5b506102926103ca366004612663565b610a72565b3480156103db57600080fd5b506102476103ea366004612663565b610b05565b3480156103fb57600080fd5b5061029261040a36600461272a565b610b7c565b34801561041b57600080fd5b5061027f610c03565b34801561043057600080fd5b5061027f610c3e565b34801561044557600080fd5b50610292668e1bc9bf04000081565b34801561046057600080fd5b50610247610d5f565b34801561047557600080fd5b50610247610484366004612745565b610d6e565b61027f61049736600461283b565b610d8d565b3480156104a857600080fd5b506101f06104b73660046126fe565b610ff7565b3480156104c857600080fd5b5061021a611022565b3480156104dd57600080fd5b506102926104ec36600461272a565b600e6020526000908152604090205481565b34801561050a57600080fd5b50610292600081565b34801561051f57600080fd5b5061027f61052e3660046128c7565b611031565b34801561053f57600080fd5b50610292600080516020612de883398151915281565b34801561056157600080fd5b5061027f610570366004612903565b6110f2565b34801561058157600080fd5b50610292600080516020612e2883398151915281565b3480156105a357600080fd5b5061027f61112a565b3480156105b857600080fd5b5061021a6105c7366004612663565b611160565b3480156105d857600080fd5b506102926105e7366004612663565b61122a565b3480156105f857600080fd5b5061029261115c81565b34801561060e57600080fd5b506101f061061d3660046129c2565b611241565b34801561062e57600080fd5b5061027f61063d3660046126fe565b6112ab565b34801561064e57600080fd5b5061027f6112b5565b34801561066357600080fd5b506101f0610672366004612a35565b6113c1565b34801561068357600080fd5b5061027f61069236600461272a565b6113ef565b60006106a2826114b2565b92915050565b6060600080546106b790612a5f565b80601f01602080910402602001604051908101604052809291908181526020018280546106e390612a5f565b80156107305780601f1061070557610100808354040283529160200191610730565b820191906000526020600020905b81548152906001019060200180831161071357829003601f168201915b5050505050905090565b6000610745826114d7565b6107ab5760405162461bcd60e51b815260206004820152602c60248201527f4552433732313a20617070726f76656420717565727920666f72206e6f6e657860448201526b34b9ba32b73a103a37b5b2b760a11b60648201526084015b60405180910390fd5b506000908152600460205260409020546001600160a01b031690565b60006107d282610b05565b9050806001600160a01b0316836001600160a01b031614156108405760405162461bcd60e51b815260206004820152602160248201527f4552433732313a20617070726f76616c20746f2063757272656e74206f776e656044820152603960f91b60648201526084016107a2565b336001600160a01b038216148061085c575061085c81336113c1565b6108c95760405162461bcd60e51b815260206004820152603860248201527f4552433732313a20617070726f76652063616c6c6572206973206e6f74206f776044820152771b995c881b9bdc88185c1c1c9bdd995908199bdc88185b1b60421b60648201526084016107a2565b6108d383836114f4565b505050565b6108e3600033610ff7565b6108ff5760405162461bcd60e51b81526004016107a290612a9a565b601055565b61090e3382611562565b61092a5760405162461bcd60e51b81526004016107a290612ac5565b6108d383838361162c565b6000908152600b602052604090206001015490565b610955600033610ff7565b6109715760405162461bcd60e51b81526004016107a290612a9a565b600f805460ff19169055565b61098782826117c5565b6000828152600c602052604090206108d3908261149d565b60006109aa83610b7c565b8210610a0c5760405162461bcd60e51b815260206004820152602b60248201527f455243373231456e756d657261626c653a206f776e657220696e646578206f7560448201526a74206f6620626f756e647360a81b60648201526084016107a2565b506001600160a01b03919091166000908152600660209081526040808320938352929052205490565b610a3f82826117e2565b6000828152600c602052604090206108d3908261185c565b6108d3838383604051806020016040528060008152506110f2565b6000610a7d60085490565b8210610ae05760405162461bcd60e51b815260206004820152602c60248201527f455243373231456e756d657261626c653a20676c6f62616c20696e646578206f60448201526b7574206f6620626f756e647360a01b60648201526084016107a2565b60088281548110610af357610af3612b16565b90600052602060002001549050919050565b6000818152600260205260408120546001600160a01b0316806106a25760405162461bcd60e51b815260206004820152602960248201527f4552433732313a206f776e657220717565727920666f72206e6f6e657869737460448201526832b73a103a37b5b2b760b91b60648201526084016107a2565b60006001600160a01b038216610be75760405162461bcd60e51b815260206004820152602a60248201527f4552433732313a2062616c616e636520717565727920666f7220746865207a65604482015269726f206164647265737360b01b60648201526084016107a2565b506001600160a01b031660009081526003602052604090205490565b33610c0c610d5f565b6001600160a01b031614610c325760405162461bcd60e51b81526004016107a290612b2c565b610c3c6000611871565b565b610c49600033610ff7565b610c655760405162461bcd60e51b81526004016107a290612a9a565b476000610c7f600080516020612e2883398151915261122a565b905060008211610cc85760405162461bcd60e51b81526020600482015260146024820152732737ba3434b733903a37903bb4ba34323930bb9760611b60448201526064016107a2565b6000600a610cd7846009612b77565b610ce19190612bac565b905060005b82811015610d30576000610d08600080516020612e2883398151915283610d6e565b9050610d1d81610d188686612bac565b6118c3565b5080610d2881612bc0565b915050610ce6565b50476000610d4c600080516020612de883398151915282610d6e565b9050610d5881836118c3565b5050505050565b600a546001600160a01b031690565b6000828152600c60205260408120610d869083611959565b9392505050565b8260ff1661115c610d9d60085490565b1415610dbb5760405162461bcd60e51b81526004016107a290612bdb565b61115c81610dc860085490565b610dd29190612bfd565b1115610df05760405162461bcd60e51b81526004016107a290612c15565b60008460ff1611610e435760405162461bcd60e51b815260206004820152601f60248201527f4d7573742070726f7669646520616e20616d6f756e7420746f206d696e742e0060448201526064016107a2565b610e4e600033610ff7565b610fc657610e6660ff8516668e1bc9bf040000612b77565b341015610ea95760405162461bcd60e51b815260206004820152601160248201527056616c75652062656c6f7720707269636560781b60448201526064016107a2565b600f5460ff1615610f1c5760058460ff161115610f175760405162461bcd60e51b815260206004820152602660248201527f43616e206d696e742061206d6178206f66203520647572696e67207075626c69604482015265632073616c6560d01b60648201526084016107a2565b610fc6565b610f27338484611241565b610f675760405162461bcd60e51b81526020600482015260116024820152702737ba1037b7103bb434ba32b634b9ba1760791b60448201526064016107a2565b60028460ff161115610fc65760405162461bcd60e51b815260206004820152602260248201527f43616e206d696e742061206d6178206f66203220647572696e672070726573616044820152616c6560f01b60648201526084016107a2565b60005b8460ff16811015610fef57610fdd86611965565b80610fe781612bc0565b915050610fc9565b505050505050565b6000918252600b602090815260408084206001600160a01b0393909316845291905290205460ff1690565b6060600180546106b790612a5f565b6001600160a01b0382163314156110865760405162461bcd60e51b815260206004820152601960248201527822a9219b99189d1030b8383937bb32903a379031b0b63632b960391b60448201526064016107a2565b3360008181526005602090815260408083206001600160a01b03871680855290835292819020805460ff191686151590811790915590519081529192917f17307eab39ab6107e8899845ad3d59bd9653f200f220920489ca2b5937696c31910160405180910390a35050565b6110fc3383611562565b6111185760405162461bcd60e51b81526004016107a290612ac5565b611124848484846119cc565b50505050565b611135600033610ff7565b6111515760405162461bcd60e51b81526004016107a290612a9a565b600f805460ff19166001179055565b606061116b826114d7565b6111cf5760405162461bcd60e51b815260206004820152602f60248201527f4552433732314d657461646174613a2055524920717565727920666f72206e6f60448201526e3732bc34b9ba32b73a103a37b5b2b760891b60648201526084016107a2565b60006111d96119ff565b905060008151116111f95760405180602001604052806000815250610d86565b8061120384611a0e565b604051602001611214929190612c45565b6040516020818303038152906040529392505050565b6000818152600c602052604081206106a290611b0b565b600082516000148061125257508151155b1561125f57506000610d86565b6040516001600160601b0319606086901b1660208201526000906034016040516020818303038152906040528051906020012090506112a2601054828686611b15565b95945050505050565b610a3f8282611be0565b336000908152600e60205260409020548061130e5760405162461bcd60e51b81526020600482015260196024820152784d757374206861766520636c61696d61626c65206d696e747360381b60448201526064016107a2565b336000908152600e602052604090205460085461115c14156113425760405162461bcd60e51b81526004016107a290612bdb565b61115c8161134f60085490565b6113599190612bfd565b11156113775760405162461bcd60e51b81526004016107a290612c15565b60005b336000908152600e60205260409020548110156113ac5761139a33611965565b806113a481612bc0565b91505061137a565b5050336000908152600e602052604081205550565b6001600160a01b03918216600090815260056020908152604080832093909416825291909152205460ff1690565b336113f8610d5f565b6001600160a01b03161461141e5760405162461bcd60e51b81526004016107a290612b2c565b6001600160a01b0381166114835760405162461bcd60e51b815260206004820152602660248201527f4f776e61626c653a206e6577206f776e657220697320746865207a65726f206160448201526564647265737360d01b60648201526084016107a2565b61148c81611871565b50565b6114998282611bfd565b5050565b6000610d86836001600160a01b038416611c83565b60006001600160e01b03198216635a05180f60e01b14806106a257506106a282611cd2565b6000908152600260205260409020546001600160a01b0316151590565b600081815260046020526040902080546001600160a01b0319166001600160a01b038416908117909155819061152982610b05565b6001600160a01b03167f8c5be1e5ebec7d5bd14f71427d1e84f3dd0314c0f7b2291e5b200ac8c7c3b92560405160405180910390a45050565b600061156d826114d7565b6115ce5760405162461bcd60e51b815260206004820152602c60248201527f4552433732313a206f70657261746f7220717565727920666f72206e6f6e657860448201526b34b9ba32b73a103a37b5b2b760a11b60648201526084016107a2565b60006115d983610b05565b9050806001600160a01b0316846001600160a01b031614806116145750836001600160a01b03166116098461073a565b6001600160a01b0316145b80611624575061162481856113c1565b949350505050565b826001600160a01b031661163f82610b05565b6001600160a01b0316146116a75760405162461bcd60e51b815260206004820152602960248201527f4552433732313a207472616e73666572206f6620746f6b656e2074686174206960448201526839903737ba1037bbb760b91b60648201526084016107a2565b6001600160a01b0382166117095760405162461bcd60e51b8152602060048201526024808201527f4552433732313a207472616e7366657220746f20746865207a65726f206164646044820152637265737360e01b60648201526084016107a2565b611714838383611cf7565b61171f6000826114f4565b6001600160a01b0383166000908152600360205260408120805460019290611748908490612c74565b90915550506001600160a01b0382166000908152600360205260408120805460019290611776908490612bfd565b909155505060008181526002602052604080822080546001600160a01b0319166001600160a01b038681169182179092559151849391871691600080516020612e0883398151915291a4505050565b6117ce82610935565b6117d88133611d02565b6108d38383611bfd565b6001600160a01b03811633146118525760405162461bcd60e51b815260206004820152602f60248201527f416363657373436f6e74726f6c3a2063616e206f6e6c792072656e6f756e636560448201526e103937b632b9903337b91039b2b63360891b60648201526084016107a2565b6114998282611d66565b6000610d86836001600160a01b038416611dcd565b600a80546001600160a01b038381166001600160a01b0319831681179093556040519116919082907f8be0079c531659141344cd1fd0a4f28419497f9722a3daafe3b4186f6b6457e090600090a35050565b6000826001600160a01b03168260405160006040518083038185875af1925050503d8060008114611910576040519150601f19603f3d011682016040523d82523d6000602084013e611915565b606091505b50509050806108d35760405162461bcd60e51b815260206004820152601060248201526f2a3930b739b332b9103330b4b632b21760811b60448201526064016107a2565b6000610d868383611ec0565b600061197060085490565b61197b906001612bfd565b90506119878282611eea565b604080518281526001600160a01b03841660208201527f527efdb0e41693cd8cbb9c6d2d35c8563b7b73cfdd0790d7d2588c893b91b8c6910160405180910390a15050565b6119d784848461162c565b6119e384848484611f04565b6111245760405162461bcd60e51b81526004016107a290612c8b565b6060600d80546106b790612a5f565b606081611a325750506040805180820190915260018152600360fc1b602082015290565b8160005b8115611a5c5780611a4681612bc0565b9150611a559050600a83612bac565b9150611a36565b6000816001600160401b03811115611a7657611a76612767565b6040519080825280601f01601f191660200182016040528015611aa0576020820181803683370190505b5090505b841561162457611ab5600183612c74565b9150611ac2600a86612cdd565b611acd906030612bfd565b60f81b818381518110611ae257611ae2612b16565b60200101906001600160f81b031916908160001a905350611b04600a86612bac565b9450611aa4565b60006106a2825490565b600083815b8451811015611bd4576000858281518110611b3757611b37612b16565b60200260200101519050848281518110611b5357611b53612b16565b602002602001015160011415611b94576040805160208101859052908101829052606001604051602081830303815290604052805190602001209250611bc1565b60408051602081018390529081018490526060016040516020818303038152906040528051906020012092505b5080611bcc81612bc0565b915050611b1a565b50909414949350505050565b611be982610935565b611bf38133611d02565b6108d38383611d66565b611c078282610ff7565b611499576000828152600b602090815260408083206001600160a01b03851684529091529020805460ff19166001179055611c3f3390565b6001600160a01b0316816001600160a01b0316837f2f8788117e7eff1d82e926ec794901d17c78024a50270940304540a733656f0d60405160405180910390a45050565b6000818152600183016020526040812054611cca575081546001818101845560008481526020808220909301849055845484825282860190935260409020919091556106a2565b5060006106a2565b60006001600160e01b03198216637965db0b60e01b14806106a257506106a28261200e565b6108d3838383612033565b611d0c8282610ff7565b61149957611d24816001600160a01b031660146120eb565b611d2f8360206120eb565b604051602001611d40929190612cf1565b60408051601f198184030181529082905262461bcd60e51b82526107a291600401612650565b611d708282610ff7565b15611499576000828152600b602090815260408083206001600160a01b0385168085529252808320805460ff1916905551339285917ff6391f5c32d9c69d2a47ea670b442974b53935d1edc7fd64eb21e047a839171b9190a45050565b60008181526001830160205260408120548015611eb6576000611df1600183612c74565b8554909150600090611e0590600190612c74565b9050818114611e6a576000866000018281548110611e2557611e25612b16565b9060005260206000200154905080876000018481548110611e4857611e48612b16565b6000918252602080832090910192909255918252600188019052604090208390555b8554869080611e7b57611e7b612d60565b6001900381819060005260206000200160009055905585600101600086815260200190815260200160002060009055600193505050506106a2565b60009150506106a2565b6000826000018281548110611ed757611ed7612b16565b9060005260206000200154905092915050565b611499828260405180602001604052806000815250612286565b60006001600160a01b0384163b1561200657604051630a85bd0160e11b81526001600160a01b0385169063150b7a0290611f48903390899088908890600401612d76565b602060405180830381600087803b158015611f6257600080fd5b505af1925050508015611f92575060408051601f3d908101601f19168201909252611f8f91810190612db3565b60015b611fec573d808015611fc0576040519150601f19603f3d011682016040523d82523d6000602084013e611fc5565b606091505b508051611fe45760405162461bcd60e51b81526004016107a290612c8b565b805181602001fd5b6001600160e01b031916630a85bd0160e11b149050611624565b506001611624565b60006001600160e01b0319821663780e9d6360e01b14806106a257506106a2826122b9565b6001600160a01b03831661208e5761208981600880546000838152600960205260408120829055600182018355919091527ff3f7a9fe364faab93b216da50a3214154f22a0a2b415b23a84c8169e8b636ee30155565b6120b1565b816001600160a01b0316836001600160a01b0316146120b1576120b18382612309565b6001600160a01b0382166120c8576108d3816123a6565b826001600160a01b0316826001600160a01b0316146108d3576108d38282612455565b606060006120fa836002612b77565b612105906002612bfd565b6001600160401b0381111561211c5761211c612767565b6040519080825280601f01601f191660200182016040528015612146576020820181803683370190505b509050600360fc1b8160008151811061216157612161612b16565b60200101906001600160f81b031916908160001a905350600f60fb1b8160018151811061219057612190612b16565b60200101906001600160f81b031916908160001a90535060006121b4846002612b77565b6121bf906001612bfd565b90505b6001811115612237576f181899199a1a9b1b9c1cb0b131b232b360811b85600f16601081106121f3576121f3612b16565b1a60f81b82828151811061220957612209612b16565b60200101906001600160f81b031916908160001a90535060049490941c9361223081612dd0565b90506121c2565b508315610d865760405162461bcd60e51b815260206004820181905260248201527f537472696e67733a20686578206c656e67746820696e73756666696369656e7460448201526064016107a2565b6122908383612499565b61229d6000848484611f04565b6108d35760405162461bcd60e51b81526004016107a290612c8b565b60006001600160e01b031982166380ac58cd60e01b14806122ea57506001600160e01b03198216635b5e139f60e01b145b806106a257506301ffc9a760e01b6001600160e01b03198316146106a2565b6000600161231684610b7c565b6123209190612c74565b600083815260076020526040902054909150808214612373576001600160a01b03841660009081526006602090815260408083208584528252808320548484528184208190558352600790915290208190555b5060009182526007602090815260408084208490556001600160a01b039094168352600681528383209183525290812055565b6008546000906123b890600190612c74565b600083815260096020526040812054600880549394509092849081106123e0576123e0612b16565b90600052602060002001549050806008838154811061240157612401612b16565b600091825260208083209091019290925582815260099091526040808220849055858252812055600880548061243957612439612d60565b6001900381819060005260206000200160009055905550505050565b600061246083610b7c565b6001600160a01b039093166000908152600660209081526040808320868452825280832085905593825260079052919091209190915550565b6001600160a01b0382166124ef5760405162461bcd60e51b815260206004820181905260248201527f4552433732313a206d696e7420746f20746865207a65726f206164647265737360448201526064016107a2565b6124f8816114d7565b156125445760405162461bcd60e51b815260206004820152601c60248201527b115490cdcc8c4e881d1bdad95b88185b1c9958591e481b5a5b9d195960221b60448201526064016107a2565b61255060008383611cf7565b6001600160a01b0382166000908152600360205260408120805460019290612579908490612bfd565b909155505060008181526002602052604080822080546001600160a01b0319166001600160a01b0386169081179091559051839290600080516020612e08833981519152908290a45050565b6001600160e01b03198116811461148c57600080fd5b6000602082840312156125ed57600080fd5b8135610d86816125c5565b60005b838110156126135781810151838201526020016125fb565b838111156111245750506000910152565b6000815180845261263c8160208601602086016125f8565b601f01601f19169290920160200192915050565b602081526000610d866020830184612624565b60006020828403121561267557600080fd5b5035919050565b80356001600160a01b038116811461269357600080fd5b919050565b600080604083850312156126ab57600080fd5b6126b48361267c565b946020939093013593505050565b6000806000606084860312156126d757600080fd5b6126e08461267c565b92506126ee6020850161267c565b9150604084013590509250925092565b6000806040838503121561271157600080fd5b823591506127216020840161267c565b90509250929050565b60006020828403121561273c57600080fd5b610d868261267c565b6000806040838503121561275857600080fd5b50508035926020909101359150565b634e487b7160e01b600052604160045260246000fd5b604051601f8201601f191681016001600160401b03811182821017156127a5576127a5612767565b604052919050565b60006001600160401b038211156127c6576127c6612767565b5060051b60200190565b600082601f8301126127e157600080fd5b813560206127f66127f1836127ad565b61277d565b82815260059290921b8401810191818101908684111561281557600080fd5b8286015b848110156128305780358352918301918301612819565b509695505050505050565b6000806000806080858703121561285157600080fd5b61285a8561267c565b9350602085013560ff8116811461287057600080fd5b925060408501356001600160401b038082111561288c57600080fd5b612898888389016127d0565b935060608701359150808211156128ae57600080fd5b506128bb878288016127d0565b91505092959194509250565b600080604083850312156128da57600080fd5b6128e38361267c565b9150602083013580151581146128f857600080fd5b809150509250929050565b6000806000806080858703121561291957600080fd5b6129228561267c565b9350602061293181870161267c565b93506040860135925060608601356001600160401b038082111561295457600080fd5b818801915088601f83011261296857600080fd5b81358181111561297a5761297a612767565b61298c601f8201601f1916850161277d565b915080825289848285010111156129a257600080fd5b808484018584013760008482840101525080935050505092959194509250565b6000806000606084860312156129d757600080fd5b6129e08461267c565b925060208401356001600160401b03808211156129fc57600080fd5b612a08878388016127d0565b93506040860135915080821115612a1e57600080fd5b50612a2b868287016127d0565b9150509250925092565b60008060408385031215612a4857600080fd5b612a518361267c565b91506127216020840161267c565b600181811c90821680612a7357607f821691505b60208210811415612a9457634e487b7160e01b600052602260045260246000fd5b50919050565b60208082526011908201527026bab9ba1031329030b71030b236b4b71760791b604082015260600190565b60208082526031908201527f4552433732313a207472616e736665722063616c6c6572206973206e6f74206f6040820152701ddb995c881b9bdc88185c1c1c9bdd9959607a1b606082015260800190565b634e487b7160e01b600052603260045260246000fd5b6020808252818101527f4f776e61626c653a2063616c6c6572206973206e6f7420746865206f776e6572604082015260600190565b634e487b7160e01b600052601160045260246000fd5b6000816000190483118215151615612b9157612b91612b61565b500290565b634e487b7160e01b600052601260045260246000fd5b600082612bbb57612bbb612b96565b500490565b6000600019821415612bd457612bd4612b61565b5060010190565b602080825260089082015267536f6c646f75742160c01b604082015260600190565b60008219821115612c1057612c10612b61565b500190565b6020808252601690820152752737ba1032b737bab3b41036b4b73a39903632b33a1760511b604082015260600190565b60008351612c578184602088016125f8565b835190830190612c6b8183602088016125f8565b01949350505050565b600082821015612c8657612c86612b61565b500390565b60208082526032908201527f4552433732313a207472616e7366657220746f206e6f6e20455243373231526560408201527131b2b4bb32b91034b6b83632b6b2b73a32b960711b606082015260800190565b600082612cec57612cec612b96565b500690565b76020b1b1b2b9b9a1b7b73a3937b61d1030b1b1b7bab73a1604d1b815260008351612d238160178501602088016125f8565b7001034b99036b4b9b9b4b733903937b6329607d1b6017918401918201528351612d548160288401602088016125f8565b01602801949350505050565b634e487b7160e01b600052603160045260246000fd5b6001600160a01b0385811682528416602082015260408101839052608060608201819052600090612da990830184612624565b9695505050505050565b600060208284031215612dc557600080fd5b8151610d86816125c5565b600081612ddf57612ddf612b61565b50600019019056fe877a78dc988c0ec5f58453b44888a55eb39755c3d5ed8d8ea990912aa3ef29c6ddf252ad1be2c89b69c2b068fc378daa952ba7f163c4a11628f55a4df523b3ef7ed687a8f2955bd2ba7ca08227e1e364d132be747f42fb733165f923021b0225a2646970667358221220d05b2668edf1fdd2d672fc4139fd86494f4b74337744cf8c491345621ef4453a64736f6c63430008090033",
  "linkReferences": {},
  "deployedLinkReferences": {}
}